{
  "contractName": "CarbonFootprint",
  "abi": [
    {
      "inputs": [],
      "stateMutability": "nonpayable",
      "type": "constructor"
    },
    {
      "anonymous": false,
      "inputs": [
        {
          "indexed": true,
          "internalType": "address",
          "name": "owner",
          "type": "address"
        },
        {
          "indexed": true,
          "internalType": "address",
          "name": "approved",
          "type": "address"
        },
        {
          "indexed": true,
          "internalType": "uint256",
          "name": "tokenId",
          "type": "uint256"
        }
      ],
      "name": "Approval",
      "type": "event"
    },
    {
      "anonymous": false,
      "inputs": [
        {
          "indexed": true,
          "internalType": "address",
          "name": "owner",
          "type": "address"
        },
        {
          "indexed": true,
          "internalType": "address",
          "name": "operator",
          "type": "address"
        },
        {
          "indexed": false,
          "internalType": "bool",
          "name": "approved",
          "type": "bool"
        }
      ],
      "name": "ApprovalForAll",
      "type": "event"
    },
    {
      "anonymous": false,
      "inputs": [
        {
          "indexed": true,
          "internalType": "address",
          "name": "from",
          "type": "address"
        },
        {
          "indexed": true,
          "internalType": "address",
          "name": "to",
          "type": "address"
        },
        {
          "indexed": true,
          "internalType": "uint256",
          "name": "tokenId",
          "type": "uint256"
        }
      ],
      "name": "Transfer",
      "type": "event"
    },
    {
      "inputs": [
        {
          "internalType": "address",
          "name": "to",
          "type": "address"
        },
        {
          "internalType": "uint256",
          "name": "tokenId",
          "type": "uint256"
        }
      ],
      "name": "approve",
      "outputs": [],
      "stateMutability": "nonpayable",
      "type": "function"
    },
    {
      "inputs": [
        {
          "internalType": "address",
          "name": "owner",
          "type": "address"
        }
      ],
      "name": "balanceOf",
      "outputs": [
        {
          "internalType": "uint256",
          "name": "",
          "type": "uint256"
        }
      ],
      "stateMutability": "view",
      "type": "function",
      "constant": true
    },
    {
      "inputs": [
        {
          "internalType": "uint256",
          "name": "tokenId",
          "type": "uint256"
        }
      ],
      "name": "getApproved",
      "outputs": [
        {
          "internalType": "address",
          "name": "",
          "type": "address"
        }
      ],
      "stateMutability": "view",
      "type": "function",
      "constant": true
    },
    {
      "inputs": [
        {
          "internalType": "address",
          "name": "owner",
          "type": "address"
        },
        {
          "internalType": "address",
          "name": "operator",
          "type": "address"
        }
      ],
      "name": "isApprovedForAll",
      "outputs": [
        {
          "internalType": "bool",
          "name": "",
          "type": "bool"
        }
      ],
      "stateMutability": "view",
      "type": "function",
      "constant": true
    },
    {
      "inputs": [],
      "name": "name",
      "outputs": [
        {
          "internalType": "string",
          "name": "",
          "type": "string"
        }
      ],
      "stateMutability": "view",
      "type": "function",
      "constant": true
    },
    {
      "inputs": [
        {
          "internalType": "uint256",
          "name": "tokenId",
          "type": "uint256"
        }
      ],
      "name": "ownerOf",
      "outputs": [
        {
          "internalType": "address",
          "name": "",
          "type": "address"
        }
      ],
      "stateMutability": "view",
      "type": "function",
      "constant": true
    },
    {
      "inputs": [
        {
          "internalType": "address",
          "name": "from",
          "type": "address"
        },
        {
          "internalType": "address",
          "name": "to",
          "type": "address"
        },
        {
          "internalType": "uint256",
          "name": "tokenId",
          "type": "uint256"
        }
      ],
      "name": "safeTransferFrom",
      "outputs": [],
      "stateMutability": "nonpayable",
      "type": "function"
    },
    {
      "inputs": [
        {
          "internalType": "address",
          "name": "from",
          "type": "address"
        },
        {
          "internalType": "address",
          "name": "to",
          "type": "address"
        },
        {
          "internalType": "uint256",
          "name": "tokenId",
          "type": "uint256"
        },
        {
          "internalType": "bytes",
          "name": "_data",
          "type": "bytes"
        }
      ],
      "name": "safeTransferFrom",
      "outputs": [],
      "stateMutability": "nonpayable",
      "type": "function"
    },
    {
      "inputs": [
        {
          "internalType": "address",
          "name": "operator",
          "type": "address"
        },
        {
          "internalType": "bool",
          "name": "approved",
          "type": "bool"
        }
      ],
      "name": "setApprovalForAll",
      "outputs": [],
      "stateMutability": "nonpayable",
      "type": "function"
    },
    {
      "inputs": [
        {
          "internalType": "bytes4",
          "name": "interfaceId",
          "type": "bytes4"
        }
      ],
      "name": "supportsInterface",
      "outputs": [
        {
          "internalType": "bool",
          "name": "",
          "type": "bool"
        }
      ],
      "stateMutability": "view",
      "type": "function",
      "constant": true
    },
    {
      "inputs": [],
      "name": "symbol",
      "outputs": [
        {
          "internalType": "string",
          "name": "",
          "type": "string"
        }
      ],
      "stateMutability": "view",
      "type": "function",
      "constant": true
    },
    {
      "inputs": [
        {
          "internalType": "uint256",
          "name": "tokenId",
          "type": "uint256"
        }
      ],
      "name": "tokenURI",
      "outputs": [
        {
          "internalType": "string",
          "name": "",
          "type": "string"
        }
      ],
      "stateMutability": "view",
      "type": "function",
      "constant": true
    },
    {
      "inputs": [
        {
          "internalType": "uint256",
          "name": "_lotto",
          "type": "uint256"
        },
        {
          "internalType": "uint32",
          "name": "_valore_CO2",
          "type": "uint32"
        },
        {
          "internalType": "string[]",
          "name": "_nomi_attivita",
          "type": "string[]"
        },
        {
          "internalType": "uint32[]",
          "name": "_valori_CO2_attivita",
          "type": "uint32[]"
        },
        {
          "internalType": "string",
          "name": "_tipologia",
          "type": "string"
        },
        {
          "internalType": "address",
          "name": "_possessore",
          "type": "address"
        },
        {
          "internalType": "uint256[]",
          "name": "_lotti_materie_prime",
          "type": "uint256[]"
        },
        {
          "internalType": "string",
          "name": "_nome",
          "type": "string"
        }
      ],
      "name": "creaProdotto",
      "outputs": [
        {
          "internalType": "uint256",
          "name": "",
          "type": "uint256"
        }
      ],
      "stateMutability": "nonpayable",
      "type": "function"
    },
    {
      "inputs": [
        {
          "internalType": "uint256",
          "name": "_lotto",
          "type": "uint256"
        }
      ],
      "name": "setTipologiaUtilizzato",
      "outputs": [],
      "stateMutability": "nonpayable",
      "type": "function"
    },
    {
      "inputs": [],
      "name": "currentToken",
      "outputs": [
        {
          "internalType": "uint256",
          "name": "",
          "type": "uint256"
        }
      ],
      "stateMutability": "view",
      "type": "function",
      "constant": true
    },
    {
      "inputs": [
        {
          "internalType": "uint256",
          "name": "_token_prodotto",
          "type": "uint256"
        }
      ],
      "name": "getRisorsaByIdProdotto",
      "outputs": [
        {
          "components": [
            {
              "internalType": "string",
              "name": "nome",
              "type": "string"
            },
            {
              "internalType": "uint256",
              "name": "lotto",
              "type": "uint256"
            },
            {
              "internalType": "string[]",
              "name": "nomi_attivita",
              "type": "string[]"
            },
            {
              "internalType": "uint32[]",
              "name": "valori_CO2_attivita",
              "type": "uint32[]"
            },
            {
              "internalType": "uint32",
              "name": "valore_CO2",
              "type": "uint32"
            },
            {
              "internalType": "string",
              "name": "tipologia",
              "type": "string"
            },
            {
              "internalType": "uint256[]",
              "name": "lotti_materie_prime",
              "type": "uint256[]"
            },
            {
              "internalType": "uint256",
              "name": "token",
              "type": "uint256"
            },
            {
              "internalType": "bool",
              "name": "exists",
              "type": "bool"
            }
          ],
          "internalType": "struct CarbonFootprint.Risorsa",
          "name": "",
          "type": "tuple"
        }
      ],
      "stateMutability": "view",
      "type": "function",
      "constant": true
    },
    {
      "inputs": [
        {
          "internalType": "uint256",
          "name": "_lotto",
          "type": "uint256"
        }
      ],
      "name": "getRisorsaByLotto",
      "outputs": [
        {
          "components": [
            {
              "internalType": "string",
              "name": "nome",
              "type": "string"
            },
            {
              "internalType": "uint256",
              "name": "lotto",
              "type": "uint256"
            },
            {
              "internalType": "string[]",
              "name": "nomi_attivita",
              "type": "string[]"
            },
            {
              "internalType": "uint32[]",
              "name": "valori_CO2_attivita",
              "type": "uint32[]"
            },
            {
              "internalType": "uint32",
              "name": "valore_CO2",
              "type": "uint32"
            },
            {
              "internalType": "string",
              "name": "tipologia",
              "type": "string"
            },
            {
              "internalType": "uint256[]",
              "name": "lotti_materie_prime",
              "type": "uint256[]"
            },
            {
              "internalType": "uint256",
              "name": "token",
              "type": "uint256"
            },
            {
              "internalType": "bool",
              "name": "exists",
              "type": "bool"
            }
          ],
          "internalType": "struct CarbonFootprint.Risorsa",
          "name": "",
          "type": "tuple"
        }
      ],
      "stateMutability": "view",
      "type": "function",
      "constant": true
    },
    {
      "inputs": [
        {
          "internalType": "address",
          "name": "from",
          "type": "address"
        },
        {
          "internalType": "address",
          "name": "to",
          "type": "address"
        },
        {
          "internalType": "uint256",
          "name": "tokenId",
          "type": "uint256"
        }
      ],
      "name": "transferFrom",
      "outputs": [],
      "stateMutability": "nonpayable",
      "type": "function"
    }
  ],
  "bytecode": "0x60806040523480156200001157600080fd5b506040518060400160405280600f81526020017f436172626f6e466f6f747072696e7400000000000000000000000000000000008152506040518060400160405280600381526020017f4346500000000000000000000000000000000000000000000000000000000000815250816000908051906020019062000096929190620000b8565b508060019080519060200190620000af929190620000b8565b505050620001cd565b828054620000c69062000168565b90600052602060002090601f016020900481019282620000ea576000855562000136565b82601f106200010557805160ff191683800117855562000136565b8280016001018555821562000136579182015b828111156200013557825182559160200191906001019062000118565b5b50905062000145919062000149565b5090565b5b80821115620001645760008160009055506001016200014a565b5090565b600060028204905060018216806200018157607f821691505b602082108114156200019857620001976200019e565b5b50919050565b7f4e487b7100000000000000000000000000000000000000000000000000000000600052602260045260246000fd5b613ca180620001dd6000396000f3fe608060405234801561001057600080fd5b50600436106101165760003560e01c806372f74f43116100a2578063a22cb46511610071578063a22cb46514610319578063b3157ba614610335578063b88d4fde14610351578063c87b56dd1461036d578063e985e9c51461039d57610116565b806372f74f431461027d57806378e1fa8f146102ad578063836c081d146102dd57806395d89b41146102fb57610116565b806323b872dd116100e957806323b872dd146101b557806336cc4992146101d157806342842e0e146102015780636352211e1461021d57806370a082311461024d57610116565b806301ffc9a71461011b57806306fdde031461014b578063081812fc14610169578063095ea7b314610199575b600080fd5b61013560048036038101906101309190612903565b6103cd565b60405161014291906130a9565b60405180910390f35b6101536104af565b60405161016091906130c4565b60405180910390f35b610183600480360381019061017e9190612955565b610541565b6040516101909190613042565b60405180910390f35b6101b360048036038101906101ae91906128c7565b6105c6565b005b6101cf60048036038101906101ca91906127c1565b6106de565b005b6101eb60048036038101906101e6919061297e565b6106fe565b6040516101f891906132c8565b60405180910390f35b61021b600480360381019061021691906127c1565b610988565b005b61023760048036038101906102329190612955565b6109a8565b6040516102449190613042565b60405180910390f35b6102676004803603810190610262919061275c565b610a5a565b60405161027491906132c8565b60405180910390f35b61029760048036038101906102929190612955565b610b12565b6040516102a491906132a6565b60405180910390f35b6102c760048036038101906102c29190612955565b610e6e565b6040516102d491906132a6565b60405180910390f35b6102e56111ca565b6040516102f291906132c8565b60405180910390f35b6103036111db565b60405161031091906130c4565b60405180910390f35b610333600480360381019061032e919061288b565b61126d565b005b61034f600480360381019061034a9190612955565b611283565b005b61036b60048036038101906103669190612810565b611362565b005b61038760048036038101906103829190612955565b6113c4565b60405161039491906130c4565b60405180910390f35b6103b760048036038101906103b29190612785565b61146b565b6040516103c491906130a9565b60405180910390f35b60007f80ac58cd000000000000000000000000000000000000000000000000000000007bffffffffffffffffffffffffffffffffffffffffffffffffffffffff1916827bffffffffffffffffffffffffffffffffffffffffffffffffffffffff1916148061049857507f5b5e139f000000000000000000000000000000000000000000000000000000007bffffffffffffffffffffffffffffffffffffffffffffffffffffffff1916827bffffffffffffffffffffffffffffffffffffffffffffffffffffffff1916145b806104a857506104a7826114ff565b5b9050919050565b6060600080546104be9061366e565b80601f01602080910402602001604051908101604052809291908181526020018280546104ea9061366e565b80156105375780601f1061050c57610100808354040283529160200191610537565b820191906000526020600020905b81548152906001019060200180831161051a57829003601f168201915b5050505050905090565b600061054c82611569565b61058b576040517f08c379a000000000000000000000000000000000000000000000000000000000815260040161058290613226565b60405180910390fd5b6004600083815260200190815260200160002060009054906101000a900473ffffffffffffffffffffffffffffffffffffffff169050919050565b60006105d1826109a8565b90508073ffffffffffffffffffffffffffffffffffffffff168373ffffffffffffffffffffffffffffffffffffffff161415610642576040517f08c379a000000000000000000000000000000000000000000000000000000000815260040161063990613266565b60405180910390fd5b8073ffffffffffffffffffffffffffffffffffffffff166106616115d5565b73ffffffffffffffffffffffffffffffffffffffff161480610690575061068f8161068a6115d5565b61146b565b5b6106cf576040517f08c379a00000000000000000000000000000000000000000000000000000000081526004016106c6906131a6565b60405180910390fd5b6106d983836115dd565b505050565b6106f983838360405180602001604052806000815250611696565b505050565b600061070a60066116f2565b60006107166006611708565b905060006040518061012001604052808581526020018c81526020018a81526020018981526020018b63ffffffff16815260200188815260200186815260200183815260200160011515815250905080600760008d815260200190815260200160002060008201518160000190805190602001906107959291906121a3565b506020820151816001015560408201518160020190805190602001906107bc929190612229565b5060608201518160030190805190602001906107d9929190612289565b5060808201518160040160006101000a81548163ffffffff021916908363ffffffff16021790555060a082015181600501908051906020019061081d9291906121a3565b5060c082015181600601908051906020019061083a929190612339565b5060e082015181600701556101008201518160080160006101000a81548160ff021916908315150217905550905050806008600084815260200190815260200160002060008201518160000190805190602001906108999291906121a3565b506020820151816001015560408201518160020190805190602001906108c0929190612229565b5060608201518160030190805190602001906108dd929190612289565b5060808201518160040160006101000a81548163ffffffff021916908363ffffffff16021790555060a08201518160050190805190602001906109219291906121a3565b5060c082015181600601908051906020019061093e929190612339565b5060e082015181600701556101008201518160080160006101000a81548160ff0219169083151502179055509050506109778683611716565b819250505098975050505050505050565b6109a383838360405180602001604052806000815250611362565b505050565b6000806002600084815260200190815260200160002060009054906101000a900473ffffffffffffffffffffffffffffffffffffffff169050600073ffffffffffffffffffffffffffffffffffffffff168173ffffffffffffffffffffffffffffffffffffffff161415610a51576040517f08c379a0000000000000000000000000000000000000000000000000000000008152600401610a48906131e6565b60405180910390fd5b80915050919050565b60008073ffffffffffffffffffffffffffffffffffffffff168273ffffffffffffffffffffffffffffffffffffffff161415610acb576040517f08c379a0000000000000000000000000000000000000000000000000000000008152600401610ac2906131c6565b60405180910390fd5b600360008373ffffffffffffffffffffffffffffffffffffffff1673ffffffffffffffffffffffffffffffffffffffff168152602001908152602001600020549050919050565b610b1a612386565b6007600083815260200190815260200160002060405180610120016040529081600082018054610b499061366e565b80601f0160208091040260200160405190810160405280929190818152602001828054610b759061366e565b8015610bc25780601f10610b9757610100808354040283529160200191610bc2565b820191906000526020600020905b815481529060010190602001808311610ba557829003601f168201915b505050505081526020016001820154815260200160028201805480602002602001604051908101604052809291908181526020016000905b82821015610ca6578382906000526020600020018054610c199061366e565b80601f0160208091040260200160405190810160405280929190818152602001828054610c459061366e565b8015610c925780601f10610c6757610100808354040283529160200191610c92565b820191906000526020600020905b815481529060010190602001808311610c7557829003601f168201915b505050505081526020019060010190610bfa565b50505050815260200160038201805480602002602001604051908101604052809291908181526020018280548015610d2957602002820191906000526020600020906000905b82829054906101000a900463ffffffff1663ffffffff1681526020019060040190602082600301049283019260010382029150808411610cec5790505b505050505081526020016004820160009054906101000a900463ffffffff1663ffffffff1663ffffffff168152602001600582018054610d689061366e565b80601f0160208091040260200160405190810160405280929190818152602001828054610d949061366e565b8015610de15780601f10610db657610100808354040283529160200191610de1565b820191906000526020600020905b815481529060010190602001808311610dc457829003601f168201915b5050505050815260200160068201805480602002602001604051908101604052809291908181526020018280548015610e3957602002820191906000526020600020905b815481526020019060010190808311610e25575b50505050508152602001600782015481526020016008820160009054906101000a900460ff1615151515815250509050919050565b610e76612386565b6008600083815260200190815260200160002060405180610120016040529081600082018054610ea59061366e565b80601f0160208091040260200160405190810160405280929190818152602001828054610ed19061366e565b8015610f1e5780601f10610ef357610100808354040283529160200191610f1e565b820191906000526020600020905b815481529060010190602001808311610f0157829003601f168201915b505050505081526020016001820154815260200160028201805480602002602001604051908101604052809291908181526020016000905b82821015611002578382906000526020600020018054610f759061366e565b80601f0160208091040260200160405190810160405280929190818152602001828054610fa19061366e565b8015610fee5780601f10610fc357610100808354040283529160200191610fee565b820191906000526020600020905b815481529060010190602001808311610fd157829003601f168201915b505050505081526020019060010190610f56565b5050505081526020016003820180548060200260200160405190810160405280929190818152602001828054801561108557602002820191906000526020600020906000905b82829054906101000a900463ffffffff1663ffffffff16815260200190600401906020826003010492830192600103820291508084116110485790505b505050505081526020016004820160009054906101000a900463ffffffff1663ffffffff1663ffffffff1681526020016005820180546110c49061366e565b80601f01602080910402602001604051908101604052809291908181526020018280546110f09061366e565b801561113d5780601f106111125761010080835404028352916020019161113d565b820191906000526020600020905b81548152906001019060200180831161112057829003601f168201915b505050505081526020016006820180548060200260200160405190810160405280929190818152602001828054801561119557602002820191906000526020600020905b815481526020019060010190808311611181575b50505050508152602001600782015481526020016008820160009054906101000a900460ff1615151515815250509050919050565b60006111d66006611708565b905090565b6060600180546111ea9061366e565b80601f01602080910402602001604051908101604052809291908181526020018280546112169061366e565b80156112635780601f1061123857610100808354040283529160200191611263565b820191906000526020600020905b81548152906001019060200180831161124657829003601f168201915b5050505050905090565b61127f6112786115d5565b8383611734565b5050565b6040518060400160405280600a81526020017f7574696c697a7a617461000000000000000000000000000000000000000000008152506007600083815260200190815260200160002060050190805190602001906112e29291906121a3565b506000600760008381526020019081526020016000206007015490506040518060400160405280600a81526020017f7574696c697a7a6174610000000000000000000000000000000000000000000081525060086000838152602001908152602001600020600501908051906020019061135d9291906121a3565b505050565b61137361136d6115d5565b836118a1565b6113b2576040517f08c379a00000000000000000000000000000000000000000000000000000000081526004016113a990613286565b60405180910390fd5b6113be84848484611696565b50505050565b60606113cf82611569565b61140e576040517f08c379a000000000000000000000000000000000000000000000000000000000815260040161140590613246565b60405180910390fd5b600061141861197f565b905060008151116114385760405180602001604052806000815250611463565b8061144284611996565b60405160200161145392919061301e565b6040516020818303038152906040525b915050919050565b6000600560008473ffffffffffffffffffffffffffffffffffffffff1673ffffffffffffffffffffffffffffffffffffffff16815260200190815260200160002060008373ffffffffffffffffffffffffffffffffffffffff1673ffffffffffffffffffffffffffffffffffffffff16815260200190815260200160002060009054906101000a900460ff16905092915050565b60007f01ffc9a7000000000000000000000000000000000000000000000000000000007bffffffffffffffffffffffffffffffffffffffffffffffffffffffff1916827bffffffffffffffffffffffffffffffffffffffffffffffffffffffff1916149050919050565b60008073ffffffffffffffffffffffffffffffffffffffff166002600084815260200190815260200160002060009054906101000a900473ffffffffffffffffffffffffffffffffffffffff1673ffffffffffffffffffffffffffffffffffffffff1614159050919050565b600033905090565b816004600083815260200190815260200160002060006101000a81548173ffffffffffffffffffffffffffffffffffffffff021916908373ffffffffffffffffffffffffffffffffffffffff160217905550808273ffffffffffffffffffffffffffffffffffffffff16611650836109a8565b73ffffffffffffffffffffffffffffffffffffffff167f8c5be1e5ebec7d5bd14f71427d1e84f3dd0314c0f7b2291e5b200ac8c7c3b92560405160405180910390a45050565b6116a1848484611b43565b6116ad84848484611daa565b6116ec576040517f08c379a00000000000000000000000000000000000000000000000000000000081526004016116e3906130e6565b60405180910390fd5b50505050565b6001816000016000828254019250508190555050565b600081600001549050919050565b611730828260405180602001604052806000815250611f41565b5050565b8173ffffffffffffffffffffffffffffffffffffffff168373ffffffffffffffffffffffffffffffffffffffff1614156117a3576040517f08c379a000000000000000000000000000000000000000000000000000000000815260040161179a90613166565b60405180910390fd5b80600560008573ffffffffffffffffffffffffffffffffffffffff1673ffffffffffffffffffffffffffffffffffffffff16815260200190815260200160002060008473ffffffffffffffffffffffffffffffffffffffff1673ffffffffffffffffffffffffffffffffffffffff16815260200190815260200160002060006101000a81548160ff0219169083151502179055508173ffffffffffffffffffffffffffffffffffffffff168373ffffffffffffffffffffffffffffffffffffffff167f17307eab39ab6107e8899845ad3d59bd9653f200f220920489ca2b5937696c318360405161189491906130a9565b60405180910390a3505050565b60006118ac82611569565b6118eb576040517f08c379a00000000000000000000000000000000000000000000000000000000081526004016118e290613186565b60405180910390fd5b60006118f6836109a8565b90508073ffffffffffffffffffffffffffffffffffffffff168473ffffffffffffffffffffffffffffffffffffffff16148061196557508373ffffffffffffffffffffffffffffffffffffffff1661194d84610541565b73ffffffffffffffffffffffffffffffffffffffff16145b806119765750611975818561146b565b5b91505092915050565b606060405180602001604052806000815250905090565b606060008214156119de576040518060400160405280600181526020017f30000000000000000000000000000000000000000000000000000000000000008152509050611b3e565b600082905060005b60008214611a105780806119f9906136d1565b915050600a82611a099190613543565b91506119e6565b60008167ffffffffffffffff811115611a52577f4e487b7100000000000000000000000000000000000000000000000000000000600052604160045260246000fd5b6040519080825280601f01601f191660200182016040528015611a845781602001600182028036833780820191505090505b5090505b60008514611b3757600182611a9d9190613574565b9150600a85611aac919061371a565b6030611ab891906134ed565b60f81b818381518110611af4577f4e487b7100000000000000000000000000000000000000000000000000000000600052603260045260246000fd5b60200101907effffffffffffffffffffffffffffffffffffffffffffffffffffffffffffff1916908160001a905350600a85611b309190613543565b9450611a88565b8093505050505b919050565b8273ffffffffffffffffffffffffffffffffffffffff16611b63826109a8565b73ffffffffffffffffffffffffffffffffffffffff1614611bb9576040517f08c379a0000000000000000000000000000000000000000000000000000000008152600401611bb090613106565b60405180910390fd5b600073ffffffffffffffffffffffffffffffffffffffff168273ffffffffffffffffffffffffffffffffffffffff161415611c29576040517f08c379a0000000000000000000000000000000000000000000000000000000008152600401611c2090613146565b60405180910390fd5b611c34838383611f9c565b611c3f6000826115dd565b6001600360008573ffffffffffffffffffffffffffffffffffffffff1673ffffffffffffffffffffffffffffffffffffffff1681526020019081526020016000206000828254611c8f9190613574565b925050819055506001600360008473ffffffffffffffffffffffffffffffffffffffff1673ffffffffffffffffffffffffffffffffffffffff1681526020019081526020016000206000828254611ce691906134ed565b92505081905550816002600083815260200190815260200160002060006101000a81548173ffffffffffffffffffffffffffffffffffffffff021916908373ffffffffffffffffffffffffffffffffffffffff160217905550808273ffffffffffffffffffffffffffffffffffffffff168473ffffffffffffffffffffffffffffffffffffffff167fddf252ad1be2c89b69c2b068fc378daa952ba7f163c4a11628f55a4df523b3ef60405160405180910390a4611da5838383611fa1565b505050565b6000611dcb8473ffffffffffffffffffffffffffffffffffffffff16611fa6565b15611f34578373ffffffffffffffffffffffffffffffffffffffff1663150b7a02611df46115d5565b8786866040518563ffffffff1660e01b8152600401611e16949392919061305d565b602060405180830381600087803b158015611e3057600080fd5b505af1925050508015611e6157506040513d601f19601f82011682018060405250810190611e5e919061292c565b60015b611ee4573d8060008114611e91576040519150601f19603f3d011682016040523d82523d6000602084013e611e96565b606091505b50600081511415611edc576040517f08c379a0000000000000000000000000000000000000000000000000000000008152600401611ed3906130e6565b60405180910390fd5b805181602001fd5b63150b7a0260e01b7bffffffffffffffffffffffffffffffffffffffffffffffffffffffff1916817bffffffffffffffffffffffffffffffffffffffffffffffffffffffff191614915050611f39565b600190505b949350505050565b611f4b8383611fc9565b611f586000848484611daa565b611f97576040517f08c379a0000000000000000000000000000000000000000000000000000000008152600401611f8e906130e6565b60405180910390fd5b505050565b505050565b505050565b6000808273ffffffffffffffffffffffffffffffffffffffff163b119050919050565b600073ffffffffffffffffffffffffffffffffffffffff168273ffffffffffffffffffffffffffffffffffffffff161415612039576040517f08c379a000000000000000000000000000000000000000000000000000000000815260040161203090613206565b60405180910390fd5b61204281611569565b15612082576040517f08c379a000000000000000000000000000000000000000000000000000000000815260040161207990613126565b60405180910390fd5b61208e60008383611f9c565b6001600360008473ffffffffffffffffffffffffffffffffffffffff1673ffffffffffffffffffffffffffffffffffffffff16815260200190815260200160002060008282546120de91906134ed565b92505081905550816002600083815260200190815260200160002060006101000a81548173ffffffffffffffffffffffffffffffffffffffff021916908373ffffffffffffffffffffffffffffffffffffffff160217905550808273ffffffffffffffffffffffffffffffffffffffff16600073ffffffffffffffffffffffffffffffffffffffff167fddf252ad1be2c89b69c2b068fc378daa952ba7f163c4a11628f55a4df523b3ef60405160405180910390a461219f60008383611fa1565b5050565b8280546121af9061366e565b90600052602060002090601f0160209004810192826121d15760008555612218565b82601f106121ea57805160ff1916838001178555612218565b82800160010185558215612218579182015b828111156122175782518255916020019190600101906121fc565b5b50905061222591906123da565b5090565b828054828255906000526020600020908101928215612278579160200282015b828111156122775782518290805190602001906122679291906121a3565b5091602001919060010190612249565b5b50905061228591906123f7565b5090565b828054828255906000526020600020906007016008900481019282156123285791602002820160005b838211156122f657835183826101000a81548163ffffffff021916908363ffffffff16021790555092602001926004016020816003010492830192600103026122b2565b80156123265782816101000a81549063ffffffff02191690556004016020816003010492830192600103026122f6565b505b50905061233591906123da565b5090565b828054828255906000526020600020908101928215612375579160200282015b82811115612374578251825591602001919060010190612359565b5b50905061238291906123da565b5090565b60405180610120016040528060608152602001600081526020016060815260200160608152602001600063ffffffff1681526020016060815260200160608152602001600081526020016000151581525090565b5b808211156123f35760008160009055506001016123db565b5090565b5b80821115612417576000818161240e919061241b565b506001016123f8565b5090565b5080546124279061366e565b6000825580601f106124395750612458565b601f01602090049060005260206000209081019061245791906123da565b5b50565b600061246e61246984613308565b6132e3565b9050808382526020820190508260005b858110156124ae57813585016124948882612708565b84526020840193506020830192505060018101905061247e565b5050509392505050565b60006124cb6124c684613334565b6132e3565b905080838252602082019050828560208602820111156124ea57600080fd5b60005b8581101561251a57816125008882612732565b8452602084019350602083019250506001810190506124ed565b5050509392505050565b600061253761253284613360565b6132e3565b9050808382526020820190508285602086028201111561255657600080fd5b60005b85811015612586578161256c8882612747565b845260208401935060208301925050600181019050612559565b5050509392505050565b60006125a361259e8461338c565b6132e3565b9050828152602081018484840111156125bb57600080fd5b6125c684828561362c565b509392505050565b60006125e16125dc846133bd565b6132e3565b9050828152602081018484840111156125f957600080fd5b61260484828561362c565b509392505050565b60008135905061261b81613bf8565b92915050565b600082601f83011261263257600080fd5b813561264284826020860161245b565b91505092915050565b600082601f83011261265c57600080fd5b813561266c8482602086016124b8565b91505092915050565b600082601f83011261268657600080fd5b8135612696848260208601612524565b91505092915050565b6000813590506126ae81613c0f565b92915050565b6000813590506126c381613c26565b92915050565b6000815190506126d881613c26565b92915050565b600082601f8301126126ef57600080fd5b81356126ff848260208601612590565b91505092915050565b600082601f83011261271957600080fd5b81356127298482602086016125ce565b91505092915050565b60008135905061274181613c3d565b92915050565b60008135905061275681613c54565b92915050565b60006020828403121561276e57600080fd5b600061277c8482850161260c565b91505092915050565b6000806040838503121561279857600080fd5b60006127a68582860161260c565b92505060206127b78582860161260c565b9150509250929050565b6000806000606084860312156127d657600080fd5b60006127e48682870161260c565b93505060206127f58682870161260c565b925050604061280686828701612732565b9150509250925092565b6000806000806080858703121561282657600080fd5b60006128348782880161260c565b94505060206128458782880161260c565b935050604061285687828801612732565b925050606085013567ffffffffffffffff81111561287357600080fd5b61287f878288016126de565b91505092959194509250565b6000806040838503121561289e57600080fd5b60006128ac8582860161260c565b92505060206128bd8582860161269f565b9150509250929050565b600080604083850312156128da57600080fd5b60006128e88582860161260c565b92505060206128f985828601612732565b9150509250929050565b60006020828403121561291557600080fd5b6000612923848285016126b4565b91505092915050565b60006020828403121561293e57600080fd5b600061294c848285016126c9565b91505092915050565b60006020828403121561296757600080fd5b600061297584828501612732565b91505092915050565b600080600080600080600080610100898b03121561299b57600080fd5b60006129a98b828c01612732565b98505060206129ba8b828c01612747565b975050604089013567ffffffffffffffff8111156129d757600080fd5b6129e38b828c01612621565b965050606089013567ffffffffffffffff811115612a0057600080fd5b612a0c8b828c01612675565b955050608089013567ffffffffffffffff811115612a2957600080fd5b612a358b828c01612708565b94505060a0612a468b828c0161260c565b93505060c089013567ffffffffffffffff811115612a6357600080fd5b612a6f8b828c0161264b565b92505060e089013567ffffffffffffffff811115612a8c57600080fd5b612a988b828c01612708565b9150509295985092959890939650565b6000612ab48383612c83565b905092915050565b6000612ac88383612ff1565b60208301905092915050565b6000612ae0838361300f565b60208301905092915050565b612af5816135a8565b82525050565b6000612b068261341e565b612b10818561347c565b935083602082028501612b22856133ee565b8060005b85811015612b5e5784840389528151612b3f8582612aa8565b9450612b4a83613455565b925060208a01995050600181019050612b26565b50829750879550505050505092915050565b6000612b7b82613429565b612b85818561348d565b9350612b90836133fe565b8060005b83811015612bc1578151612ba88882612abc565b9750612bb383613462565b925050600181019050612b94565b5085935050505092915050565b6000612bd982613434565b612be3818561349e565b9350612bee8361340e565b8060005b83811015612c1f578151612c068882612ad4565b9750612c118361346f565b925050600181019050612bf2565b5085935050505092915050565b612c35816135ba565b82525050565b612c44816135ba565b82525050565b6000612c558261343f565b612c5f81856134af565b9350612c6f81856020860161363b565b612c7881613807565b840191505092915050565b6000612c8e8261344a565b612c9881856134c0565b9350612ca881856020860161363b565b612cb181613807565b840191505092915050565b6000612cc78261344a565b612cd181856134d1565b9350612ce181856020860161363b565b612cea81613807565b840191505092915050565b6000612d008261344a565b612d0a81856134e2565b9350612d1a81856020860161363b565b80840191505092915050565b6000612d336032836134d1565b9150612d3e82613818565b604082019050919050565b6000612d566025836134d1565b9150612d6182613867565b604082019050919050565b6000612d79601c836134d1565b9150612d84826138b6565b602082019050919050565b6000612d9c6024836134d1565b9150612da7826138df565b604082019050919050565b6000612dbf6019836134d1565b9150612dca8261392e565b602082019050919050565b6000612de2602c836134d1565b9150612ded82613957565b604082019050919050565b6000612e056038836134d1565b9150612e10826139a6565b604082019050919050565b6000612e28602a836134d1565b9150612e33826139f5565b604082019050919050565b6000612e4b6029836134d1565b9150612e5682613a44565b604082019050919050565b6000612e6e6020836134d1565b9150612e7982613a93565b602082019050919050565b6000612e91602c836134d1565b9150612e9c82613abc565b604082019050919050565b6000612eb4602f836134d1565b9150612ebf82613b0b565b604082019050919050565b6000612ed76021836134d1565b9150612ee282613b5a565b604082019050919050565b6000612efa6031836134d1565b9150612f0582613ba9565b604082019050919050565b6000610120830160008301518482036000860152612f2e8282612c83565b9150506020830151612f436020860182612ff1565b5060408301518482036040860152612f5b8282612afb565b91505060608301518482036060860152612f758282612bce565b9150506080830151612f8a608086018261300f565b5060a083015184820360a0860152612fa28282612c83565b91505060c083015184820360c0860152612fbc8282612b70565b91505060e0830151612fd160e0860182612ff1565b50610100830151612fe6610100860182612c2c565b508091505092915050565b612ffa81613612565b82525050565b61300981613612565b82525050565b6130188161361c565b82525050565b600061302a8285612cf5565b91506130368284612cf5565b91508190509392505050565b60006020820190506130576000830184612aec565b92915050565b60006080820190506130726000830187612aec565b61307f6020830186612aec565b61308c6040830185613000565b818103606083015261309e8184612c4a565b905095945050505050565b60006020820190506130be6000830184612c3b565b92915050565b600060208201905081810360008301526130de8184612cbc565b905092915050565b600060208201905081810360008301526130ff81612d26565b9050919050565b6000602082019050818103600083015261311f81612d49565b9050919050565b6000602082019050818103600083015261313f81612d6c565b9050919050565b6000602082019050818103600083015261315f81612d8f565b9050919050565b6000602082019050818103600083015261317f81612db2565b9050919050565b6000602082019050818103600083015261319f81612dd5565b9050919050565b600060208201905081810360008301526131bf81612df8565b9050919050565b600060208201905081810360008301526131df81612e1b565b9050919050565b600060208201905081810360008301526131ff81612e3e565b9050919050565b6000602082019050818103600083015261321f81612e61565b9050919050565b6000602082019050818103600083015261323f81612e84565b9050919050565b6000602082019050818103600083015261325f81612ea7565b9050919050565b6000602082019050818103600083015261327f81612eca565b9050919050565b6000602082019050818103600083015261329f81612eed565b9050919050565b600060208201905081810360008301526132c08184612f10565b905092915050565b60006020820190506132dd6000830184613000565b92915050565b60006132ed6132fe565b90506132f982826136a0565b919050565b6000604051905090565b600067ffffffffffffffff821115613323576133226137d8565b5b602082029050602081019050919050565b600067ffffffffffffffff82111561334f5761334e6137d8565b5b602082029050602081019050919050565b600067ffffffffffffffff82111561337b5761337a6137d8565b5b602082029050602081019050919050565b600067ffffffffffffffff8211156133a7576133a66137d8565b5b6133b082613807565b9050602081019050919050565b600067ffffffffffffffff8211156133d8576133d76137d8565b5b6133e182613807565b9050602081019050919050565b6000819050602082019050919050565b6000819050602082019050919050565b6000819050602082019050919050565b600081519050919050565b600081519050919050565b600081519050919050565b600081519050919050565b600081519050919050565b6000602082019050919050565b6000602082019050919050565b6000602082019050919050565b600082825260208201905092915050565b600082825260208201905092915050565b600082825260208201905092915050565b600082825260208201905092915050565b600082825260208201905092915050565b600082825260208201905092915050565b600081905092915050565b60006134f882613612565b915061350383613612565b9250827fffffffffffffffffffffffffffffffffffffffffffffffffffffffffffffffff038211156135385761353761374b565b5b828201905092915050565b600061354e82613612565b915061355983613612565b9250826135695761356861377a565b5b828204905092915050565b600061357f82613612565b915061358a83613612565b92508282101561359d5761359c61374b565b5b828203905092915050565b60006135b3826135f2565b9050919050565b60008115159050919050565b60007fffffffff0000000000000000000000000000000000000000000000000000000082169050919050565b600073ffffffffffffffffffffffffffffffffffffffff82169050919050565b6000819050919050565b600063ffffffff82169050919050565b82818337600083830152505050565b60005b8381101561365957808201518184015260208101905061363e565b83811115613668576000848401525b50505050565b6000600282049050600182168061368657607f821691505b6020821081141561369a576136996137a9565b5b50919050565b6136a982613807565b810181811067ffffffffffffffff821117156136c8576136c76137d8565b5b80604052505050565b60006136dc82613612565b91507fffffffffffffffffffffffffffffffffffffffffffffffffffffffffffffffff82141561370f5761370e61374b565b5b600182019050919050565b600061372582613612565b915061373083613612565b9250826137405761373f61377a565b5b828206905092915050565b7f4e487b7100000000000000000000000000000000000000000000000000000000600052601160045260246000fd5b7f4e487b7100000000000000000000000000000000000000000000000000000000600052601260045260246000fd5b7f4e487b7100000000000000000000000000000000000000000000000000000000600052602260045260246000fd5b7f4e487b7100000000000000000000000000000000000000000000000000000000600052604160045260246000fd5b6000601f19601f8301169050919050565b7f4552433732313a207472616e7366657220746f206e6f6e20455243373231526560008201527f63656976657220696d706c656d656e7465720000000000000000000000000000602082015250565b7f4552433732313a207472616e736665722066726f6d20696e636f72726563742060008201527f6f776e6572000000000000000000000000000000000000000000000000000000602082015250565b7f4552433732313a20746f6b656e20616c7265616479206d696e74656400000000600082015250565b7f4552433732313a207472616e7366657220746f20746865207a65726f2061646460008201527f7265737300000000000000000000000000000000000000000000000000000000602082015250565b7f4552433732313a20617070726f766520746f2063616c6c657200000000000000600082015250565b7f4552433732313a206f70657261746f7220717565727920666f72206e6f6e657860008201527f697374656e7420746f6b656e0000000000000000000000000000000000000000602082015250565b7f4552433732313a20617070726f76652063616c6c6572206973206e6f74206f7760008201527f6e6572206e6f7220617070726f76656420666f7220616c6c0000000000000000602082015250565b7f4552433732313a2062616c616e636520717565727920666f7220746865207a6560008201527f726f206164647265737300000000000000000000000000000000000000000000602082015250565b7f4552433732313a206f776e657220717565727920666f72206e6f6e657869737460008201527f656e7420746f6b656e0000000000000000000000000000000000000000000000602082015250565b7f4552433732313a206d696e7420746f20746865207a65726f2061646472657373600082015250565b7f4552433732313a20617070726f76656420717565727920666f72206e6f6e657860008201527f697374656e7420746f6b656e0000000000000000000000000000000000000000602082015250565b7f4552433732314d657461646174613a2055524920717565727920666f72206e6f60008201527f6e6578697374656e7420746f6b656e0000000000000000000000000000000000602082015250565b7f4552433732313a20617070726f76616c20746f2063757272656e74206f776e6560008201527f7200000000000000000000000000000000000000000000000000000000000000602082015250565b7f4552433732313a207472616e736665722063616c6c6572206973206e6f74206f60008201527f776e6572206e6f7220617070726f766564000000000000000000000000000000602082015250565b613c01816135a8565b8114613c0c57600080fd5b50565b613c18816135ba565b8114613c2357600080fd5b50565b613c2f816135c6565b8114613c3a57600080fd5b50565b613c4681613612565b8114613c5157600080fd5b50565b613c5d8161361c565b8114613c6857600080fd5b5056fea2646970667358221220b7eb934a8883d83fce5ef7265c16cccf0d17b5090d063dbbd9005c45769bb66364736f6c63430008030033",
  "immutableReferences": {},
  "source": "// SPDX-License-Identifier: MIT\r\n\r\npragma solidity 0.8.3;\r\n//pragma experimental SMTChecker;\r\n\r\nimport \"../node_modules/@openzeppelin/contracts/token/ERC721/ERC721.sol\";\r\nimport \"../node_modules/@openzeppelin/contracts/utils/Counters.sol\";\r\n\r\n\r\ncontract CarbonFootprint is ERC721 {\r\n\r\n    // per tenere il conteggio dei token prodotti fino ad ora (e quindi delle materie prima/prodotti nel catalogo)\r\n    using Counters for Counters.Counter;\r\n    Counters.Counter private _tokenIds;\r\n\r\n    // struttura che contiene le informazioni della risorsa\r\n    struct Risorsa {\r\n        string nome; // nome risorsa\r\n        uint256 lotto; // lotto che identifica la risorsa (inserito dall'utente)\r\n        string[] nomi_attivita; // vettore che contiene i nomi delle attivit svolte per produrre la risorsa (se presenti)\r\n        uint32[] valori_CO2_attivita; // vettore che contiene i consumi delle attivit svolte per produrre la risorsa (se presenti)\r\n        uint32 valore_CO2; // valore di CO2 della risorsa\r\n        string tipologia; // tipologia di risorsa (materia prima, prodotto o utilizzata)\r\n        uint256[] lotti_materie_prime; // materie prime utilizzate per produrre la risorsa (se presenti)\r\n        uint256 token; // token che identifica la risorsa (prodotto nel momento in cui la risorsa  inserita nella bc)\r\n        bool exists; // attributo che serve per capire se la risorsa esiste o meno\r\n    }\r\n\r\n    mapping(uint256=>Risorsa) private risorsaByLotto; // sapendo il lotto ricavo la risorsa\r\n    \r\n    mapping(uint256=>Risorsa) private risorsaByToken_prodotto; // sapendo il token ricavo la risorsa\r\n\r\n    // costruttore del token \r\n    constructor() \r\n    ERC721(\"CarbonFootprint\", \"CFP\"){\r\n    }\r\n    \r\n    // tale funzione crea la risorsa (sia materia prima che trasformato) e la inserisce nelle mapping per \r\n    // poterne poi estrarre le informazioni\r\n    function creaProdotto(uint256 _lotto, uint32 _valore_CO2, string[] memory _nomi_attivita, \r\n        uint32[] memory _valori_CO2_attivita, string memory _tipologia, \r\n        address _possessore, uint256[] memory _lotti_materie_prime, string memory _nome\r\n        ) public returns(uint256) {\r\n\r\n        // il token della risorsa  uguale al token corrente + 1\r\n        _tokenIds.increment();\r\n        uint256 id_nuovo_prodotto = _tokenIds.current();\r\n\r\n        // creo un'istanza di Risorsa \r\n        Risorsa memory risorsa = Risorsa(\r\n            _nome,\r\n            _lotto,\r\n            _nomi_attivita,\r\n            _valori_CO2_attivita,\r\n            _valore_CO2,\r\n            _tipologia,\r\n            _lotti_materie_prime,\r\n            id_nuovo_prodotto,\r\n            true\r\n        );\r\n\r\n        // inserisco l'istanza di risorsa nei due mapping (conoscendone il lotto ed il token)\r\n        risorsaByLotto[_lotto] = risorsa;\r\n        risorsaByToken_prodotto[id_nuovo_prodotto] = risorsa;\r\n        // assegno la risorsa al possessore\r\n        _safeMint(_possessore, id_nuovo_prodotto);\r\n\r\n        return id_nuovo_prodotto;\r\n    }\r\n\r\n    // funzione che riceve un lotto e contrassegna la relativa risorsa come \"utilizzata\"\r\n    function setTipologiaUtilizzato(\r\n        uint256 _lotto\r\n    ) external {\r\n\r\n        // setto la risorsa come utilizzata in entrambi i mapping\r\n        risorsaByLotto[_lotto].tipologia = \"utilizzata\";\r\n        uint256 token = risorsaByLotto[_lotto].token;\r\n        risorsaByToken_prodotto[token].tipologia = \"utilizzata\";\r\n\r\n    }\r\n\r\n    // restituisce il numero di token prodotti fino ad ora\r\n    function currentToken(\r\n    ) external view returns(uint256) {\r\n        return _tokenIds.current();\r\n    }\r\n\r\n    // funzione che riceve un token e restituisce la risorsa con quel token\r\n    function getRisorsaByIdProdotto(\r\n        uint256 _token_prodotto\r\n    ) external view returns(Risorsa memory) {\r\n\r\n        return risorsaByToken_prodotto[_token_prodotto];\r\n\r\n    }\r\n\r\n    // funzione che riceve un lotto e restituisce la risorsa con quel lotto\r\n    function getRisorsaByLotto(\r\n        uint256 _lotto\r\n    ) external view returns(Risorsa memory) {\r\n\r\n        return risorsaByLotto[_lotto];\r\n          \r\n    }\r\n\r\n    function transferFrom(address from, address to, uint256 tokenId) public virtual override { \r\n        _safeTransfer(from, to, tokenId, \"\");\r\n    }\r\n\r\n}",
  "sourcePath": "/Users/alessandro/vscode/CarbonFootprint_Project/network/prova/contracts/CarbonFootprint.sol",
  "compiler": {
    "name": "solc",
    "version": "0.8.3+commit.8d00100c.Emscripten.clang"
  },
  "schemaVersion": "3.4.4",
  "updatedAt": "2022-03-11T13:31:05.503Z",
  "networkType": "quorum",
  "devdoc": {
    "kind": "dev",
    "methods": {
      "approve(address,uint256)": {
        "details": "See {IERC721-approve}."
      },
      "balanceOf(address)": {
        "details": "See {IERC721-balanceOf}."
      },
      "getApproved(uint256)": {
        "details": "See {IERC721-getApproved}."
      },
      "isApprovedForAll(address,address)": {
        "details": "See {IERC721-isApprovedForAll}."
      },
      "name()": {
        "details": "See {IERC721Metadata-name}."
      },
      "ownerOf(uint256)": {
        "details": "See {IERC721-ownerOf}."
      },
      "safeTransferFrom(address,address,uint256)": {
        "details": "See {IERC721-safeTransferFrom}."
      },
      "safeTransferFrom(address,address,uint256,bytes)": {
        "details": "See {IERC721-safeTransferFrom}."
      },
      "setApprovalForAll(address,bool)": {
        "details": "See {IERC721-setApprovalForAll}."
      },
      "supportsInterface(bytes4)": {
        "details": "See {IERC165-supportsInterface}."
      },
      "symbol()": {
        "details": "See {IERC721Metadata-symbol}."
      },
      "tokenURI(uint256)": {
        "details": "See {IERC721Metadata-tokenURI}."
      },
      "transferFrom(address,address,uint256)": {
        "details": "See {IERC721-transferFrom}."
      }
    },
    "version": 1
  },
  "userdoc": {
    "kind": "user",
    "methods": {},
    "version": 1
  }
}