{
  "contractName": "Gestore_nft",
  "abi": [
    {
      "anonymous": false,
      "inputs": [
        {
          "indexed": true,
          "internalType": "address",
          "name": "previousOwner",
          "type": "address"
        },
        {
          "indexed": true,
          "internalType": "address",
          "name": "newOwner",
          "type": "address"
        }
      ],
      "name": "OwnershipTransferred",
      "type": "event"
    },
    {
      "inputs": [],
      "name": "owner",
      "outputs": [
        {
          "internalType": "address",
          "name": "",
          "type": "address"
        }
      ],
      "stateMutability": "view",
      "type": "function",
      "constant": true
    },
    {
      "inputs": [],
      "name": "renounceOwnership",
      "outputs": [],
      "stateMutability": "nonpayable",
      "type": "function"
    },
    {
      "inputs": [
        {
          "internalType": "address",
          "name": "newOwner",
          "type": "address"
        }
      ],
      "name": "transferOwnership",
      "outputs": [],
      "stateMutability": "nonpayable",
      "type": "function"
    },
    {
      "inputs": [
        {
          "internalType": "string",
          "name": "_tipo",
          "type": "string"
        },
        {
          "internalType": "address",
          "name": "_indirizzo_account",
          "type": "address"
        }
      ],
      "name": "aggiungiAttore",
      "outputs": [],
      "stateMutability": "nonpayable",
      "type": "function"
    },
    {
      "inputs": [
        {
          "internalType": "uint256",
          "name": "_lotto",
          "type": "uint256"
        },
        {
          "internalType": "uint32",
          "name": "_valore_CO2",
          "type": "uint32"
        },
        {
          "internalType": "string",
          "name": "_nome",
          "type": "string"
        }
      ],
      "name": "creaMateriaPrima",
      "outputs": [],
      "stateMutability": "nonpayable",
      "type": "function"
    },
    {
      "inputs": [
        {
          "internalType": "address",
          "name": "_destinatario",
          "type": "address"
        },
        {
          "internalType": "uint256",
          "name": "_lotto",
          "type": "uint256"
        }
      ],
      "name": "trasferimentoRisorsa",
      "outputs": [],
      "stateMutability": "nonpayable",
      "type": "function"
    },
    {
      "inputs": [
        {
          "internalType": "string[]",
          "name": "_nomi_attivita",
          "type": "string[]"
        },
        {
          "internalType": "uint32[]",
          "name": "_valori_CO2_attivita",
          "type": "uint32[]"
        },
        {
          "internalType": "string",
          "name": "_nome",
          "type": "string"
        },
        {
          "internalType": "uint256[]",
          "name": "_lotti_materie_prime",
          "type": "uint256[]"
        },
        {
          "internalType": "uint256",
          "name": "_lotto_nuovo_prodotto",
          "type": "uint256"
        }
      ],
      "name": "creaProdotto",
      "outputs": [],
      "stateMutability": "nonpayable",
      "type": "function"
    },
    {
      "inputs": [
        {
          "internalType": "uint256",
          "name": "_token",
          "type": "uint256"
        }
      ],
      "name": "getOwnerByToken",
      "outputs": [
        {
          "internalType": "address",
          "name": "",
          "type": "address"
        }
      ],
      "stateMutability": "view",
      "type": "function",
      "constant": true
    },
    {
      "inputs": [
        {
          "internalType": "uint256",
          "name": "_token",
          "type": "uint256"
        }
      ],
      "name": "getInfoByToken",
      "outputs": [
        {
          "internalType": "string",
          "name": "",
          "type": "string"
        },
        {
          "internalType": "uint256",
          "name": "",
          "type": "uint256"
        },
        {
          "internalType": "string[]",
          "name": "",
          "type": "string[]"
        },
        {
          "internalType": "uint32[]",
          "name": "",
          "type": "uint32[]"
        },
        {
          "internalType": "uint32",
          "name": "",
          "type": "uint32"
        },
        {
          "internalType": "string",
          "name": "",
          "type": "string"
        },
        {
          "internalType": "uint256[]",
          "name": "",
          "type": "uint256[]"
        },
        {
          "internalType": "uint256",
          "name": "",
          "type": "uint256"
        }
      ],
      "stateMutability": "view",
      "type": "function",
      "constant": true
    },
    {
      "inputs": [
        {
          "internalType": "uint256",
          "name": "_lotto",
          "type": "uint256"
        }
      ],
      "name": "getInfoByLotto",
      "outputs": [
        {
          "internalType": "string",
          "name": "",
          "type": "string"
        },
        {
          "internalType": "uint256",
          "name": "",
          "type": "uint256"
        },
        {
          "internalType": "string[]",
          "name": "",
          "type": "string[]"
        },
        {
          "internalType": "uint32[]",
          "name": "",
          "type": "uint32[]"
        },
        {
          "internalType": "uint32",
          "name": "",
          "type": "uint32"
        },
        {
          "internalType": "string",
          "name": "",
          "type": "string"
        },
        {
          "internalType": "uint256[]",
          "name": "",
          "type": "uint256[]"
        },
        {
          "internalType": "uint256",
          "name": "",
          "type": "uint256"
        }
      ],
      "stateMutability": "view",
      "type": "function",
      "constant": true
    },
    {
      "inputs": [
        {
          "internalType": "string",
          "name": "_nome",
          "type": "string"
        }
      ],
      "name": "getInfoByNome",
      "outputs": [
        {
          "internalType": "string",
          "name": "",
          "type": "string"
        }
      ],
      "stateMutability": "view",
      "type": "function",
      "constant": true
    },
    {
      "inputs": [
        {
          "internalType": "string",
          "name": "_ruolo",
          "type": "string"
        },
        {
          "internalType": "address",
          "name": "_indirizzo_account",
          "type": "address"
        }
      ],
      "name": "esistente",
      "outputs": [
        {
          "internalType": "bool",
          "name": "",
          "type": "bool"
        }
      ],
      "stateMutability": "view",
      "type": "function",
      "constant": true
    }
  ],
  "bytecode": "0x608060405260006004556000600555600060065560405162000021906200017f565b604051809103906000f0801580156200003e573d6000803e3d6000fd5b50600760006101000a81548173ffffffffffffffffffffffffffffffffffffffff021916908373ffffffffffffffffffffffffffffffffffffffff1602179055503480156200008c57600080fd5b50620000ad620000a1620000b360201b60201c565b620000bb60201b60201c565b6200018d565b600033905090565b60008060009054906101000a900473ffffffffffffffffffffffffffffffffffffffff169050816000806101000a81548173ffffffffffffffffffffffffffffffffffffffff021916908373ffffffffffffffffffffffffffffffffffffffff1602179055508173ffffffffffffffffffffffffffffffffffffffff168173ffffffffffffffffffffffffffffffffffffffff167f8be0079c531659141344cd1fd0a4f28419497f9722a3daafe3b4186f6b6457e060405160405180910390a35050565b613e7e8062004cff83390190565b614b62806200019d6000396000f3fe608060405234801561001057600080fd5b50600436106100b45760003560e01c806399213e271161007157806399213e27146101875780639b1414c0146101a3578063ae6c17f3146101bf578063dda4bbd0146101ef578063e7ddd4ea1461021f578063f2fde38b1461024f576100b4565b80631ecaa387146100b957806320cf45f8146100d5578063715018a61461010c578063789ce91f146101165780637f8241521461014d5780638da5cb5b14610169575b600080fd5b6100d360048036038101906100ce91906130bf565b61026b565b005b6100ef60048036038101906100ea91906132a8565b610582565b604051610103989796959493929190613a08565b60405180910390f35b6101146106e1565b005b610130600480360381019061012b91906132a8565b610769565b604051610144989796959493929190613a08565b60405180910390f35b610167600480360381019061016291906130fb565b61095d565b005b61017161121a565b60405161017e9190613979565b60405180910390f35b6101a1600480360381019061019c91906132fa565b611243565b005b6101bd60048036038101906101b89190613213565b6114c7565b005b6101d960048036038101906101d491906131d2565b61198d565b6040516101e691906139e6565b60405180910390f35b61020960048036038101906102049190613213565b612024565b60405161021691906139cb565b60405180910390f35b610239600480360381019061023491906132a8565b6122c0565b6040516102469190613979565b60405180910390f35b6102696004803603810190610264919061306d565b612499565b005b3373ffffffffffffffffffffffffffffffffffffffff168273ffffffffffffffffffffffffffffffffffffffff1614156102da576040517f08c379a00000000000000000000000000000000000000000000000000000000081526004016102d190613bc9565b60405180910390fd5b6000600760009054906101000a900473ffffffffffffffffffffffffffffffffffffffff1673ffffffffffffffffffffffffffffffffffffffff166372f74f43836040518263ffffffff1660e01b81526004016103379190613d89565b60006040518083038186803b15801561034f57600080fd5b505afa158015610363573d6000803e3d6000fd5b505050506040513d6000823e3d601f19601f8201168201806040525081019061038c9190613267565b90506001151581610100015115151480156103e757506103e58160a001516040518060400160405280600a81526020017f7574696c697a7a61746100000000000000000000000000000000000000000000815250612591565b155b610426576040517f08c379a000000000000000000000000000000000000000000000000000000000815260040161041d90613ce9565b60405180910390fd5b3373ffffffffffffffffffffffffffffffffffffffff1661044a8260e001516122c0565b73ffffffffffffffffffffffffffffffffffffffff16146104a0576040517f08c379a000000000000000000000000000000000000000000000000000000000815260040161049790613c09565b60405180910390fd5b6104a9836125ea565b6104e8576040517f08c379a00000000000000000000000000000000000000000000000000000000081526004016104df90613ba9565b60405180910390fd5b600760009054906101000a900473ffffffffffffffffffffffffffffffffffffffff1673ffffffffffffffffffffffffffffffffffffffff166323b872dd33858460e001516040518463ffffffff1660e01b815260040161054b93929190613994565b600060405180830381600087803b15801561056557600080fd5b505af1158015610579573d6000803e3d6000fd5b50505050505050565b606060006060806000606080600080600760009054906101000a900473ffffffffffffffffffffffffffffffffffffffff1673ffffffffffffffffffffffffffffffffffffffff166372f74f438b6040518263ffffffff1660e01b81526004016105ec9190613d89565b60006040518083038186803b15801561060457600080fd5b505afa158015610618573d6000803e3d6000fd5b505050506040513d6000823e3d601f19601f820116820180604052508101906106419190613267565b905060008a1415801561065e575060001515816101000151151514155b61069d576040517f08c379a000000000000000000000000000000000000000000000000000000000815260040161069490613d09565b60405180910390fd5b806000015181602001518260400151836060015184608001518560a001518660c001518760e001519850985098509850985098509850985050919395975091939597565b6106e96127ab565b73ffffffffffffffffffffffffffffffffffffffff1661070761121a565b73ffffffffffffffffffffffffffffffffffffffff161461075d576040517f08c379a000000000000000000000000000000000000000000000000000000000815260040161075490613c49565b60405180910390fd5b61076760006127b3565b565b60606000606080600060608060008089141580156108265750600760009054906101000a900473ffffffffffffffffffffffffffffffffffffffff1673ffffffffffffffffffffffffffffffffffffffff1663836c081d6040518163ffffffff1660e01b815260040160206040518083038186803b1580156107ea57600080fd5b505afa1580156107fe573d6000803e3d6000fd5b505050506040513d601f19601f8201168201806040525081019061082291906132d1565b8911155b610865576040517f08c379a000000000000000000000000000000000000000000000000000000000815260040161085c90613b69565b60405180910390fd5b6000600760009054906101000a900473ffffffffffffffffffffffffffffffffffffffff1673ffffffffffffffffffffffffffffffffffffffff166378e1fa8f8b6040518263ffffffff1660e01b81526004016108c29190613d89565b60006040518083038186803b1580156108da57600080fd5b505afa1580156108ee573d6000803e3d6000fd5b505050506040513d6000823e3d601f19601f820116820180604052508101906109179190613267565b9050806000015181602001518260400151836060015184608001518560a001518660c001518760e001519850985098509850985098509850985050919395975091939597565b6005855110801561096f575060058451105b801561097c575060058251105b8015610989575083518551145b6109c8576040517f08c379a00000000000000000000000000000000000000000000000000000000081526004016109bf90613b29565b60405180910390fd5b60001515600760009054906101000a900473ffffffffffffffffffffffffffffffffffffffff1673ffffffffffffffffffffffffffffffffffffffff166372f74f43836040518263ffffffff1660e01b8152600401610a279190613d89565b60006040518083038186803b158015610a3f57600080fd5b505afa158015610a53573d6000803e3d6000fd5b505050506040513d6000823e3d601f19601f82011682018060405250810190610a7c9190613267565b6101000151151514610ac3576040517f08c379a0000000000000000000000000000000000000000000000000000000008152600401610aba90613c89565b60405180910390fd5b610b026040518060400160405280600d81526020017f74726173666f726d61746f72650000000000000000000000000000000000000081525033612024565b610b41576040517f08c379a0000000000000000000000000000000000000000000000000000000008152600401610b3890613ca9565b60405180910390fd5b6000805b8351811015611063576000600760009054906101000a900473ffffffffffffffffffffffffffffffffffffffff1673ffffffffffffffffffffffffffffffffffffffff166372f74f43868481518110610bc7577f4e487b7100000000000000000000000000000000000000000000000000000000600052603260045260246000fd5b60200260200101516040518263ffffffff1660e01b8152600401610beb9190613d89565b60006040518083038186803b158015610c0357600080fd5b505afa158015610c17573d6000803e3d6000fd5b505050506040513d6000823e3d601f19601f82011682018060405250810190610c409190613267565b90506000610c8d868481518110610c80577f4e487b7100000000000000000000000000000000000000000000000000000000600052603260045260246000fd5b6020026020010151612877565b905060011515826101000151151514610cbe604051806080016040528060438152602001614aea6043913983612a24565b90610cff576040517f08c379a0000000000000000000000000000000000000000000000000000000008152600401610cf691906139e6565b60405180910390fd5b506000868481518110610d3b577f4e487b7100000000000000000000000000000000000000000000000000000000600052603260045260246000fd5b60200260200101511415610d84576040517f08c379a0000000000000000000000000000000000000000000000000000000008152600401610d7b90613d69565b60405180910390fd5b3373ffffffffffffffffffffffffffffffffffffffff16610da88360e001516122c0565b73ffffffffffffffffffffffffffffffffffffffff1614610de1604051806060016040528060318152602001614ab96031913983612a24565b90610e22576040517f08c379a0000000000000000000000000000000000000000000000000000000008152600401610e1991906139e6565b60405180910390fd5b50610e668260a001516040518060400160405280600d81526020017f6d617465726961207072696d6100000000000000000000000000000000000000815250612591565b610ee3610ea86040518060400160405280601c81526020017f4c27656c656d656e746f20636f6e206c6f74746f20706172692061200000000081525084612a24565b6040518060400160405280601981526020017f206e6f6e20652720756e61206d617465726961207072696d6100000000000000815250612a24565b90610f24576040517f08c379a0000000000000000000000000000000000000000000000000000000008152600401610f1b91906139e6565b60405180910390fd5b50600760009054906101000a900473ffffffffffffffffffffffffffffffffffffffff1673ffffffffffffffffffffffffffffffffffffffff1663b3157ba6878581518110610f9c577f4e487b7100000000000000000000000000000000000000000000000000000000600052603260045260246000fd5b60200260200101516040518263ffffffff1660e01b8152600401610fc09190613d89565b600060405180830381600087803b158015610fda57600080fd5b505af1158015610fee573d6000803e3d6000fd5b50505050816080015184019350816080015163ffffffff168463ffffffff16101561104e576040517f08c379a000000000000000000000000000000000000000000000000000000000815260040161104590613c29565b60405180910390fd5b5050808061105b90614225565b915050610b45565b5060005b8551811015611157578581815181106110a9577f4e487b7100000000000000000000000000000000000000000000000000000000600052603260045260246000fd5b6020026020010151820191508581815181106110ee577f4e487b7100000000000000000000000000000000000000000000000000000000600052603260045260246000fd5b602002602001015163ffffffff168263ffffffff161015611144576040517f08c379a000000000000000000000000000000000000000000000000000000000815260040161113b90613c29565b60405180910390fd5b808061114f90614225565b915050611067565b50600760009054906101000a900473ffffffffffffffffffffffffffffffffffffffff1673ffffffffffffffffffffffffffffffffffffffff166336cc49928383898933898b6040518863ffffffff1660e01b81526004016111bf9796959493929190613da4565b602060405180830381600087803b1580156111d957600080fd5b505af11580156111ed573d6000803e3d6000fd5b505050506040513d601f19601f8201168201806040525081019061121191906132d1565b50505050505050565b60008060009054906101000a900473ffffffffffffffffffffffffffffffffffffffff16905090565b6112826040518060400160405280600a81526020017f70726f647574746f72650000000000000000000000000000000000000000000081525033612024565b6112c1576040517f08c379a00000000000000000000000000000000000000000000000000000000081526004016112b890613d29565b60405180910390fd5b6000831415611305576040517f08c379a00000000000000000000000000000000000000000000000000000000081526004016112fc90613b49565b60405180910390fd5b60001515600760009054906101000a900473ffffffffffffffffffffffffffffffffffffffff1673ffffffffffffffffffffffffffffffffffffffff166372f74f43856040518263ffffffff1660e01b81526004016113649190613d89565b60006040518083038186803b15801561137c57600080fd5b505afa158015611390573d6000803e3d6000fd5b505050506040513d6000823e3d601f19601f820116820180604052508101906113b99190613267565b6101000151151514611400576040517f08c379a00000000000000000000000000000000000000000000000000000000081526004016113f790613d49565b60405180910390fd5b6060806060600760009054906101000a900473ffffffffffffffffffffffffffffffffffffffff1673ffffffffffffffffffffffffffffffffffffffff166336cc49928787858533898b6040518863ffffffff1660e01b815260040161146c9796959493929190613e43565b602060405180830381600087803b15801561148657600080fd5b505af115801561149a573d6000803e3d6000fd5b505050506040513d601f19601f820116820180604052508101906114be91906132d1565b50505050505050565b6114cf6127ab565b73ffffffffffffffffffffffffffffffffffffffff166114ed61121a565b73ffffffffffffffffffffffffffffffffffffffff1614611543576040517f08c379a000000000000000000000000000000000000000000000000000000000815260040161153a90613c49565b60405180910390fd5b611582826040518060400160405280600a81526020017f70726f647574746f726500000000000000000000000000000000000000000000815250612591565b806115c857506115c7826040518060400160405280600d81526020017f74726173666f726d61746f726500000000000000000000000000000000000000815250612591565b5b8061160e575061160d826040518060400160405280600781526020017f636c69656e746500000000000000000000000000000000000000000000000000815250612591565b5b61164d576040517f08c379a000000000000000000000000000000000000000000000000000000000815260040161164490613ae9565b60405180910390fd5b6116578282612024565b15611697576040517f08c379a000000000000000000000000000000000000000000000000000000000815260040161168e90613b89565b60405180910390fd5b6116d6826040518060400160405280600a81526020017f70726f647574746f726500000000000000000000000000000000000000000000815250612591565b1561178b578060016000600454815260200190815260200160002060006101000a81548173ffffffffffffffffffffffffffffffffffffffff021916908373ffffffffffffffffffffffffffffffffffffffff160217905550600460008154809291906001019190505550600060045411611786576040517f08c379a000000000000000000000000000000000000000000000000000000000815260040161177d90613cc9565b60405180910390fd5b611989565b6117ca826040518060400160405280600d81526020017f74726173666f726d61746f726500000000000000000000000000000000000000815250612591565b15611897578060026000600554815260200190815260200160002060006101000a81548173ffffffffffffffffffffffffffffffffffffffff021916908373ffffffffffffffffffffffffffffffffffffffff16021790555060056000815480929190600101919050555060006005541161187a576040517f08c379a000000000000000000000000000000000000000000000000000000000815260040161187190613ac9565b60405180910390fd5b6005600081548092919061188d90614225565b9190505550611988565b6118d6826040518060400160405280600781526020017f636c69656e746500000000000000000000000000000000000000000000000000815250612591565b15611987578060036000600654815260200190815260200160002060006101000a81548173ffffffffffffffffffffffffffffffffffffffff021916908373ffffffffffffffffffffffffffffffffffffffff160217905550600660008154809291906001019190505550600060065411611986576040517f08c379a000000000000000000000000000000000000000000000000000000000815260040161197d90613be9565b60405180910390fd5b5b5b5b5050565b6060600060606000600190505b600760009054906101000a900473ffffffffffffffffffffffffffffffffffffffff1673ffffffffffffffffffffffffffffffffffffffff1663836c081d6040518163ffffffff1660e01b815260040160206040518083038186803b158015611a0257600080fd5b505afa158015611a16573d6000803e3d6000fd5b505050506040513d601f19601f82011682018060405250810190611a3a91906132d1565b8111611fd5576000600760009054906101000a900473ffffffffffffffffffffffffffffffffffffffff1673ffffffffffffffffffffffffffffffffffffffff166378e1fa8f836040518263ffffffff1660e01b8152600401611a9d9190613d89565b60006040518083038186803b158015611ab557600080fd5b505afa158015611ac9573d6000803e3d6000fd5b505050506040513d6000823e3d601f19601f82011682018060405250810190611af29190613267565b9050611b02816000015187612591565b15611fc157611b15838260000151612a24565b9250611b56836040518060400160405280600181526020017f2c00000000000000000000000000000000000000000000000000000000000000815250612a24565b9250611b6e83611b698360200151612877565b612a24565b9250611baf836040518060400160405280600181526020017f2c00000000000000000000000000000000000000000000000000000000000000815250612a24565b9250611bcd83611bc8836080015163ffffffff16612877565b612a24565b9250611c0e836040518060400160405280600181526020017f2c00000000000000000000000000000000000000000000000000000000000000815250612a24565b9250611c2683611c218360e00151612877565b612a24565b9250611c67836040518060400160405280600181526020017f2c00000000000000000000000000000000000000000000000000000000000000815250612a24565b9250611c77838260a00151612a24565b9250611cb8836040518060400160405280600181526020017f2c00000000000000000000000000000000000000000000000000000000000000815250612a24565b925060005b816040015151811015611d6e57611d188483604001518381518110611d0b577f4e487b7100000000000000000000000000000000000000000000000000000000600052603260045260246000fd5b6020026020010151612a24565b9350611d59846040518060400160405280600381526020017f207c200000000000000000000000000000000000000000000000000000000000815250612a24565b93508080611d6690614225565b915050611cbd565b50611dae836040518060400160405280600181526020017f2c00000000000000000000000000000000000000000000000000000000000000815250612a24565b925060005b816060015151811015611e7257611e1c84611e1784606001518481518110611e04577f4e487b7100000000000000000000000000000000000000000000000000000000600052603260045260246000fd5b602002602001015163ffffffff16612877565b612a24565b9350611e5d846040518060400160405280600381526020017f207c200000000000000000000000000000000000000000000000000000000000815250612a24565b93508080611e6a90614225565b915050611db3565b50611eb2836040518060400160405280600181526020017f2c00000000000000000000000000000000000000000000000000000000000000815250612a24565b925060005b8160c0015151811015611f7057611f1a84611f158460c001518481518110611f08577f4e487b7100000000000000000000000000000000000000000000000000000000600052603260045260246000fd5b6020026020010151612877565b612a24565b9350611f5b846040518060400160405280600381526020017f207c200000000000000000000000000000000000000000000000000000000000815250612a24565b93508080611f6890614225565b915050611eb7565b50611fb0836040518060400160405280600181526020017f3b00000000000000000000000000000000000000000000000000000000000000815250612a24565b92508380611fbd90614225565b9450505b508080611fcd90614225565b91505061199a565b50600082141561201a576040517f08c379a000000000000000000000000000000000000000000000000000000000815260040161201190613aa9565b60405180910390fd5b8092505050919050565b6000612065836040518060400160405280600a81526020017f70726f647574746f726500000000000000000000000000000000000000000000815250612591565b156121015760005b6004548110156120fb576001600082815260200190815260200160002060009054906101000a900473ffffffffffffffffffffffffffffffffffffffff1673ffffffffffffffffffffffffffffffffffffffff168373ffffffffffffffffffffffffffffffffffffffff1614156120e85760019150506122ba565b80806120f390614225565b91505061206d565b506122b5565b612140836040518060400160405280600d81526020017f74726173666f726d61746f726500000000000000000000000000000000000000815250612591565b156121dc5760005b6005548110156121d6576002600082815260200190815260200160002060009054906101000a900473ffffffffffffffffffffffffffffffffffffffff1673ffffffffffffffffffffffffffffffffffffffff168373ffffffffffffffffffffffffffffffffffffffff1614156121c35760019150506122ba565b80806121ce90614225565b915050612148565b506122b4565b61221b836040518060400160405280600781526020017f636c69656e746500000000000000000000000000000000000000000000000000815250612591565b156122b35760005b6006548110156122b1576003600082815260200190815260200160002060009054906101000a900473ffffffffffffffffffffffffffffffffffffffff1673ffffffffffffffffffffffffffffffffffffffff168373ffffffffffffffffffffffffffffffffffffffff16141561229e5760019150506122ba565b80806122a990614225565b915050612223565b505b5b5b600090505b92915050565b600080821415612305576040517f08c379a00000000000000000000000000000000000000000000000000000000081526004016122fc90613b69565b60405180910390fd5b600760009054906101000a900473ffffffffffffffffffffffffffffffffffffffff1673ffffffffffffffffffffffffffffffffffffffff1663836c081d6040518163ffffffff1660e01b815260040160206040518083038186803b15801561236d57600080fd5b505afa158015612381573d6000803e3d6000fd5b505050506040513d601f19601f820116820180604052508101906123a591906132d1565b8211156123e7576040517f08c379a00000000000000000000000000000000000000000000000000000000081526004016123de90613c69565b60405180910390fd5b600760009054906101000a900473ffffffffffffffffffffffffffffffffffffffff1673ffffffffffffffffffffffffffffffffffffffff16636352211e836040518263ffffffff1660e01b81526004016124429190613d89565b60206040518083038186803b15801561245a57600080fd5b505afa15801561246e573d6000803e3d6000fd5b505050506040513d601f19601f820116820180604052508101906124929190613096565b9050919050565b6124a16127ab565b73ffffffffffffffffffffffffffffffffffffffff166124bf61121a565b73ffffffffffffffffffffffffffffffffffffffff1614612515576040517f08c379a000000000000000000000000000000000000000000000000000000000815260040161250c90613c49565b60405180910390fd5b600073ffffffffffffffffffffffffffffffffffffffff168173ffffffffffffffffffffffffffffffffffffffff161415612585576040517f08c379a000000000000000000000000000000000000000000000000000000000815260040161257c90613b09565b60405180910390fd5b61258e816127b3565b50565b6000816040516020016125a4919061393e565b60405160208183030381529060405280519060200120836040516020016125cb919061393e565b6040516020818303038152906040528051906020012014905092915050565b6000805b60045481101561267c576001600082815260200190815260200160002060009054906101000a900473ffffffffffffffffffffffffffffffffffffffff1673ffffffffffffffffffffffffffffffffffffffff168373ffffffffffffffffffffffffffffffffffffffff1614156126695760019150506127a6565b808061267490614225565b9150506125ee565b5060005b60055481101561270e576002600082815260200190815260200160002060009054906101000a900473ffffffffffffffffffffffffffffffffffffffff1673ffffffffffffffffffffffffffffffffffffffff168373ffffffffffffffffffffffffffffffffffffffff1614156126fb5760019150506127a6565b808061270690614225565b915050612680565b5060005b6006548110156127a0576003600082815260200190815260200160002060009054906101000a900473ffffffffffffffffffffffffffffffffffffffff1673ffffffffffffffffffffffffffffffffffffffff168373ffffffffffffffffffffffffffffffffffffffff16141561278d5760019150506127a6565b808061279890614225565b915050612712565b50600090505b919050565b600033905090565b60008060009054906101000a900473ffffffffffffffffffffffffffffffffffffffff169050816000806101000a81548173ffffffffffffffffffffffffffffffffffffffff021916908373ffffffffffffffffffffffffffffffffffffffff1602179055508173ffffffffffffffffffffffffffffffffffffffff168173ffffffffffffffffffffffffffffffffffffffff167f8be0079c531659141344cd1fd0a4f28419497f9722a3daafe3b4186f6b6457e060405160405180910390a35050565b606060008214156128bf576040518060400160405280600181526020017f30000000000000000000000000000000000000000000000000000000000000008152509050612a1f565b600082905060005b600082146128f15780806128da90614225565b915050600a826128ea91906140f5565b91506128c7565b60008167ffffffffffffffff811115612933577f4e487b7100000000000000000000000000000000000000000000000000000000600052604160045260246000fd5b6040519080825280601f01601f1916602001820160405280156129655781602001600182028036833780820191505090505b5090505b60008514612a185760018261297e9190614126565b9150600a8561298d919061426e565b6030612999919061409f565b60f81b8183815181106129d5577f4e487b7100000000000000000000000000000000000000000000000000000000600052603260045260246000fd5b60200101907effffffffffffffffffffffffffffffffffffffffffffffffffffffffffffff1916908160001a905350600a85612a1191906140f5565b9450612969565b8093505050505b919050565b60608282604051602001612a39929190613955565b604051602081830303815290604052905092915050565b6000612a63612a5e84613f07565b613ee2565b9050808382526020820190508260005b85811015612aa35781358501612a898882612e71565b845260208401935060208301925050600181019050612a73565b5050509392505050565b6000612ac0612abb84613f07565b613ee2565b9050808382526020820190508260005b85811015612b005781518501612ae68882612e9b565b845260208401935060208301925050600181019050612ad0565b5050509392505050565b6000612b1d612b1884613f33565b613ee2565b90508083825260208201905082856020860282011115612b3c57600080fd5b60005b85811015612b6c5781612b528882613019565b845260208401935060208301925050600181019050612b3f565b5050509392505050565b6000612b89612b8484613f33565b613ee2565b90508083825260208201905082856020860282011115612ba857600080fd5b60005b85811015612bd85781612bbe888261302e565b845260208401935060208301925050600181019050612bab565b5050509392505050565b6000612bf5612bf084613f5f565b613ee2565b90508083825260208201905082856020860282011115612c1457600080fd5b60005b85811015612c445781612c2a8882613043565b845260208401935060208301925050600181019050612c17565b5050509392505050565b6000612c61612c5c84613f5f565b613ee2565b90508083825260208201905082856020860282011115612c8057600080fd5b60005b85811015612cb05781612c968882613058565b845260208401935060208301925050600181019050612c83565b5050509392505050565b6000612ccd612cc884613f8b565b613ee2565b905082815260208101848484011115612ce557600080fd5b612cf08482856141b2565b509392505050565b6000612d0b612d0684613f8b565b613ee2565b905082815260208101848484011115612d2357600080fd5b612d2e8482856141c1565b509392505050565b600081359050612d4581614a5c565b92915050565b600081519050612d5a81614a5c565b92915050565b600082601f830112612d7157600080fd5b8135612d81848260208601612a50565b91505092915050565b600082601f830112612d9b57600080fd5b8151612dab848260208601612aad565b91505092915050565b600082601f830112612dc557600080fd5b8135612dd5848260208601612b0a565b91505092915050565b600082601f830112612def57600080fd5b8151612dff848260208601612b76565b91505092915050565b600082601f830112612e1957600080fd5b8135612e29848260208601612be2565b91505092915050565b600082601f830112612e4357600080fd5b8151612e53848260208601612c4e565b91505092915050565b600081519050612e6b81614a73565b92915050565b600082601f830112612e8257600080fd5b8135612e92848260208601612cba565b91505092915050565b600082601f830112612eac57600080fd5b8151612ebc848260208601612cf8565b91505092915050565b60006101208284031215612ed857600080fd5b612ee3610120613ee2565b9050600082015167ffffffffffffffff811115612eff57600080fd5b612f0b84828501612e9b565b6000830152506020612f1f8482850161302e565b602083015250604082015167ffffffffffffffff811115612f3f57600080fd5b612f4b84828501612d8a565b604083015250606082015167ffffffffffffffff811115612f6b57600080fd5b612f7784828501612e32565b6060830152506080612f8b84828501613058565b60808301525060a082015167ffffffffffffffff811115612fab57600080fd5b612fb784828501612e9b565b60a08301525060c082015167ffffffffffffffff811115612fd757600080fd5b612fe384828501612dde565b60c08301525060e0612ff78482850161302e565b60e08301525061010061300c84828501612e5c565b6101008301525092915050565b60008135905061302881614a8a565b92915050565b60008151905061303d81614a8a565b92915050565b60008135905061305281614aa1565b92915050565b60008151905061306781614aa1565b92915050565b60006020828403121561307f57600080fd5b600061308d84828501612d36565b91505092915050565b6000602082840312156130a857600080fd5b60006130b684828501612d4b565b91505092915050565b600080604083850312156130d257600080fd5b60006130e085828601612d36565b92505060206130f185828601613019565b9150509250929050565b600080600080600060a0868803121561311357600080fd5b600086013567ffffffffffffffff81111561312d57600080fd5b61313988828901612d60565b955050602086013567ffffffffffffffff81111561315657600080fd5b61316288828901612e08565b945050604086013567ffffffffffffffff81111561317f57600080fd5b61318b88828901612e71565b935050606086013567ffffffffffffffff8111156131a857600080fd5b6131b488828901612db4565b92505060806131c588828901613019565b9150509295509295909350565b6000602082840312156131e457600080fd5b600082013567ffffffffffffffff8111156131fe57600080fd5b61320a84828501612e71565b91505092915050565b6000806040838503121561322657600080fd5b600083013567ffffffffffffffff81111561324057600080fd5b61324c85828601612e71565b925050602061325d85828601612d36565b9150509250929050565b60006020828403121561327957600080fd5b600082015167ffffffffffffffff81111561329357600080fd5b61329f84828501612ec5565b91505092915050565b6000602082840312156132ba57600080fd5b60006132c884828501613019565b91505092915050565b6000602082840312156132e357600080fd5b60006132f18482850161302e565b91505092915050565b60008060006060848603121561330f57600080fd5b600061331d86828701613019565b935050602061332e86828701613043565b925050604084013567ffffffffffffffff81111561334b57600080fd5b61335786828701612e71565b9150509250925092565b600061336d83836134f4565b905092915050565b60006133818383613902565b60208301905092915050565b60006133998383613920565b60208301905092915050565b6133ae8161415a565b82525050565b60006133bf82613fec565b6133c9818561403f565b9350836020820285016133db85613fbc565b8060005b8581101561341757848403895281516133f88582613361565b945061340383614018565b925060208a019950506001810190506133df565b50829750879550505050505092915050565b600061343482613ff7565b61343e8185614050565b935061344983613fcc565b8060005b8381101561347a5781516134618882613375565b975061346c83614025565b92505060018101905061344d565b5085935050505092915050565b600061349282614002565b61349c8185614061565b93506134a783613fdc565b8060005b838110156134d85781516134bf888261338d565b97506134ca83614032565b9250506001810190506134ab565b5085935050505092915050565b6134ee8161416c565b82525050565b60006134ff8261400d565b6135098185614072565b93506135198185602086016141c1565b6135228161432c565b840191505092915050565b60006135388261400d565b6135428185614083565b93506135528185602086016141c1565b61355b8161432c565b840191505092915050565b60006135718261400d565b61357b8185614094565b935061358b8185602086016141c1565b80840191505092915050565b60006135a4604683614083565b91506135af8261433d565b606082019050919050565b60006135c7602c83614083565b91506135d2826143b2565b604082019050919050565b60006135ea604283614083565b91506135f582614401565b606082019050919050565b600061360d602683614083565b915061361882614476565b604082019050919050565b6000613630604283614083565b915061363b826144c5565b606082019050919050565b6000613653601383614083565b915061365e8261453a565b602082019050919050565b6000613676601f83614083565b915061368182614563565b602082019050919050565b6000613699602683614083565b91506136a48261458c565b604082019050919050565b60006136bc604283614083565b91506136c7826145db565b606082019050919050565b60006136df603883614083565b91506136ea82614650565b604082019050919050565b6000613702602683614083565b915061370d8261469f565b604082019050919050565b6000613725602183614083565b9150613730826146ee565b604082019050919050565b6000613748602683614083565b91506137538261473d565b604082019050919050565b600061376b602083614083565b91506137768261478c565b602082019050919050565b600061378e601483614083565b9150613799826147b5565b602082019050919050565b60006137b1602483614083565b91506137bc826147de565b604082019050919050565b60006137d4602283614083565b91506137df8261482d565b604082019050919050565b60006137f7603f83614083565b91506138028261487c565b604082019050919050565b600061381a602983614083565b9150613825826148cb565b604082019050919050565b600061383d603d83614083565b91506138488261491a565b604082019050919050565b6000613860601f83614083565b915061386b82614969565b602082019050919050565b6000613883603283614083565b915061388e82614992565b604082019050919050565b60006138a6601683614083565b91506138b1826149e1565b602082019050919050565b60006138c9601883614083565b91506138d482614a0a565b602082019050919050565b60006138ec600d83614083565b91506138f782614a33565b602082019050919050565b61390b81614198565b82525050565b61391a81614198565b82525050565b613929816141a2565b82525050565b613938816141a2565b82525050565b600061394a8284613566565b915081905092915050565b60006139618285613566565b915061396d8284613566565b91508190509392505050565b600060208201905061398e60008301846133a5565b92915050565b60006060820190506139a960008301866133a5565b6139b660208301856133a5565b6139c36040830184613911565b949350505050565b60006020820190506139e060008301846134e5565b92915050565b60006020820190508181036000830152613a00818461352d565b905092915050565b6000610100820190508181036000830152613a23818b61352d565b9050613a32602083018a613911565b8181036040830152613a4481896133b4565b90508181036060830152613a588188613487565b9050613a67608083018761392f565b81810360a0830152613a79818661352d565b905081810360c0830152613a8d8185613429565b9050613a9c60e0830184613911565b9998505050505050505050565b60006020820190508181036000830152613ac281613597565b9050919050565b60006020820190508181036000830152613ae2816135ba565b9050919050565b60006020820190508181036000830152613b02816135dd565b9050919050565b60006020820190508181036000830152613b2281613600565b9050919050565b60006020820190508181036000830152613b4281613623565b9050919050565b60006020820190508181036000830152613b6281613646565b9050919050565b60006020820190508181036000830152613b8281613669565b9050919050565b60006020820190508181036000830152613ba28161368c565b9050919050565b60006020820190508181036000830152613bc2816136af565b9050919050565b60006020820190508181036000830152613be2816136d2565b9050919050565b60006020820190508181036000830152613c02816136f5565b9050919050565b60006020820190508181036000830152613c2281613718565b9050919050565b60006020820190508181036000830152613c428161373b565b9050919050565b60006020820190508181036000830152613c628161375e565b9050919050565b60006020820190508181036000830152613c82816137a4565b9050919050565b60006020820190508181036000830152613ca2816137c7565b9050919050565b60006020820190508181036000830152613cc2816137ea565b9050919050565b60006020820190508181036000830152613ce28161380d565b9050919050565b60006020820190508181036000830152613d0281613830565b9050919050565b60006020820190508181036000830152613d2281613853565b9050919050565b60006020820190508181036000830152613d4281613876565b9050919050565b60006020820190508181036000830152613d6281613899565b9050919050565b60006020820190508181036000830152613d82816138bc565b9050919050565b6000602082019050613d9e6000830184613911565b92915050565b600061010082019050613dba600083018a613911565b613dc7602083018961392f565b8181036040830152613dd981886133b4565b90508181036060830152613ded8187613487565b90508181036080830152613e0081613781565b9050613e0f60a08301866133a5565b81810360c0830152613e218185613429565b905081810360e0830152613e35818461352d565b905098975050505050505050565b600061010082019050613e59600083018a613911565b613e66602083018961392f565b8181036040830152613e7881886133b4565b90508181036060830152613e8c8187613487565b90508181036080830152613e9f816138df565b9050613eae60a08301866133a5565b81810360c0830152613ec08185613429565b905081810360e0830152613ed4818461352d565b905098975050505050505050565b6000613eec613efd565b9050613ef882826141f4565b919050565b6000604051905090565b600067ffffffffffffffff821115613f2257613f216142fd565b5b602082029050602081019050919050565b600067ffffffffffffffff821115613f4e57613f4d6142fd565b5b602082029050602081019050919050565b600067ffffffffffffffff821115613f7a57613f796142fd565b5b602082029050602081019050919050565b600067ffffffffffffffff821115613fa657613fa56142fd565b5b613faf8261432c565b9050602081019050919050565b6000819050602082019050919050565b6000819050602082019050919050565b6000819050602082019050919050565b600081519050919050565b600081519050919050565b600081519050919050565b600081519050919050565b6000602082019050919050565b6000602082019050919050565b6000602082019050919050565b600082825260208201905092915050565b600082825260208201905092915050565b600082825260208201905092915050565b600082825260208201905092915050565b600082825260208201905092915050565b600081905092915050565b60006140aa82614198565b91506140b583614198565b9250827fffffffffffffffffffffffffffffffffffffffffffffffffffffffffffffffff038211156140ea576140e961429f565b5b828201905092915050565b600061410082614198565b915061410b83614198565b92508261411b5761411a6142ce565b5b828204905092915050565b600061413182614198565b915061413c83614198565b92508282101561414f5761414e61429f565b5b828203905092915050565b600061416582614178565b9050919050565b60008115159050919050565b600073ffffffffffffffffffffffffffffffffffffffff82169050919050565b6000819050919050565b600063ffffffff82169050919050565b82818337600083830152505050565b60005b838110156141df5780820151818401526020810190506141c4565b838111156141ee576000848401525b50505050565b6141fd8261432c565b810181811067ffffffffffffffff8211171561421c5761421b6142fd565b5b80604052505050565b600061423082614198565b91507fffffffffffffffffffffffffffffffffffffffffffffffffffffffffffffffff8214156142635761426261429f565b5b600182019050919050565b600061427982614198565b915061428483614198565b925082614294576142936142ce565b5b828206905092915050565b7f4e487b7100000000000000000000000000000000000000000000000000000000600052601160045260246000fd5b7f4e487b7100000000000000000000000000000000000000000000000000000000600052601260045260246000fd5b7f4e487b7100000000000000000000000000000000000000000000000000000000600052604160045260246000fd5b6000601f19601f8301169050919050565b7f4e6f6e20652720737461746f2074726f7661746f20616c63756e2070726f646f60008201527f74746f2f6d617465726961207072696d6120636f6e20696c206e6f6d6520696e60208201527f73657269746f0000000000000000000000000000000000000000000000000000604082015250565b7f5261676769756e746f20696c206e756d65726f206d617373696d6f206469207460008201527f726173666f726d61746f72690000000000000000000000000000000000000000602082015250565b7f492072756f6c6920646973706f6e6962696c6920736f6e6f3a205f70726f647560008201527f74746f72655f205f74726173666f726d61746f72655f2065205f636c69656e7460208201527f655f000000000000000000000000000000000000000000000000000000000000604082015250565b7f4f776e61626c653a206e6577206f776e657220697320746865207a65726f206160008201527f6464726573730000000000000000000000000000000000000000000000000000602082015250565b7f4572726f7265206e656c6c27696e736572696d656e746f2064656c206e756d6560008201527f726f206469206d617465726965207072696d65206f206469206174746976697460208201527f6127000000000000000000000000000000000000000000000000000000000000604082015250565b7f4964206c6f74746f206e6f6e2076616c69646f00000000000000000000000000600082015250565b7f496c20746f6b656e20696e73657269746f206e6f6e2065272076616c69646f00600082015250565b7f4163636f756e7420676961272070726573656e746520636f6e2071756573746f60008201527f2072756f6c6f0000000000000000000000000000000000000000000000000000602082015250565b7f496c2064657374696e61746172696f20646576652065737365726520756e207060008201527f726f647574746f72652c2074726173666f726d61746f7265206f20636c69656e60208201527f7465000000000000000000000000000000000000000000000000000000000000604082015250565b7f496c2064657374696e61746172696f20656420696c2072696368696564656e7460008201527f65206e6f6e20706f73736f6e6f20636f696e6369646572650000000000000000602082015250565b7f5261676769756e746f20696c206e756d65726f206d617373696d6f206469206360008201527f6c69656e74690000000000000000000000000000000000000000000000000000602082015250565b7f4e6f6e2073656920696e20706f73736573736f2064656c6c61207269736f727360008201527f6100000000000000000000000000000000000000000000000000000000000000602082015250565b7f5369206527207665726966696361746f20756e206572726f7265206469206f7660008201527f6572666c6f770000000000000000000000000000000000000000000000000000602082015250565b7f4f776e61626c653a2063616c6c6572206973206e6f7420746865206f776e6572600082015250565b7f70726f646f74746f2074726173666f726d61746f000000000000000000000000600082015250565b7f50726f646f74746f2f6d617465726961207072696d61206e6f6e20657369737460008201527f656e746500000000000000000000000000000000000000000000000000000000602082015250565b7f496c206c6f74746f20696e73657269746f20652720676961272070726573656e60008201527f7465000000000000000000000000000000000000000000000000000000000000602082015250565b7f536f6c6f20692074726173666f726d61746f726920706f73736f6e6f2061676760008201527f69756e6765726520756e2070726f646f74746f2074726173666f726d61746f00602082015250565b7f5261676769756e746f20696c206e756d65726f206d617373696d6f206469207060008201527f726f647574746f72690000000000000000000000000000000000000000000000602082015250565b7f496c206c6f74746f20696e73657269746f206e6f6e20636f72726973706f6e6460008201527f6520616420756e61207269736f7273612064656c20636174616c6f676f000000602082015250565b7f496c206c6f74746f20696e73657269746f206e6f6e2065272076616c69646f00600082015250565b7f536f6c6f20692070726f647574746f726920706f73736f6e6f2061676769756e60008201527f67657265206d617465726965207072696d650000000000000000000000000000602082015250565b7f4964206c6f74746f20676961272070726573656e746500000000000000000000600082015250565b7f496c206c6f74746f2030206e6f6e2065272076616c69646f0000000000000000600082015250565b7f6d617465726961207072696d6100000000000000000000000000000000000000600082015250565b614a658161415a565b8114614a7057600080fd5b50565b614a7c8161416c565b8114614a8757600080fd5b50565b614a9381614198565b8114614a9e57600080fd5b50565b614aaa816141a2565b8114614ab557600080fd5b5056fe4e6f6e2073656920696e20706f73736573736f2064656c6c61206d617465726961207072696d6120636f6e206c6f74746f4e656c20636174616c6f676f206e6f6e2065272070726573656e746520616c63756e61206d617465726961207072696d6120636f6e206c6f74746f2070617269206120a2646970667358221220c82092030fe47d58b0ee6366bd40cd6ed70d9db54d2c87b701ef0f678dd5b7ef64736f6c6343000803003360806040523480156200001157600080fd5b506040518060400160405280600f81526020017f436172626f6e466f6f747072696e7400000000000000000000000000000000008152506040518060400160405280600381526020017f4346500000000000000000000000000000000000000000000000000000000000815250816000908051906020019062000096929190620000b8565b508060019080519060200190620000af929190620000b8565b505050620001cd565b828054620000c69062000168565b90600052602060002090601f016020900481019282620000ea576000855562000136565b82601f106200010557805160ff191683800117855562000136565b8280016001018555821562000136579182015b828111156200013557825182559160200191906001019062000118565b5b50905062000145919062000149565b5090565b5b80821115620001645760008160009055506001016200014a565b5090565b600060028204905060018216806200018157607f821691505b602082108114156200019857620001976200019e565b5b50919050565b7f4e487b7100000000000000000000000000000000000000000000000000000000600052602260045260246000fd5b613ca180620001dd6000396000f3fe608060405234801561001057600080fd5b50600436106101165760003560e01c806372f74f43116100a2578063a22cb46511610071578063a22cb46514610319578063b3157ba614610335578063b88d4fde14610351578063c87b56dd1461036d578063e985e9c51461039d57610116565b806372f74f431461027d57806378e1fa8f146102ad578063836c081d146102dd57806395d89b41146102fb57610116565b806323b872dd116100e957806323b872dd146101b557806336cc4992146101d157806342842e0e146102015780636352211e1461021d57806370a082311461024d57610116565b806301ffc9a71461011b57806306fdde031461014b578063081812fc14610169578063095ea7b314610199575b600080fd5b61013560048036038101906101309190612903565b6103cd565b60405161014291906130a9565b60405180910390f35b6101536104af565b60405161016091906130c4565b60405180910390f35b610183600480360381019061017e9190612955565b610541565b6040516101909190613042565b60405180910390f35b6101b360048036038101906101ae91906128c7565b6105c6565b005b6101cf60048036038101906101ca91906127c1565b6106de565b005b6101eb60048036038101906101e6919061297e565b6106fe565b6040516101f891906132c8565b60405180910390f35b61021b600480360381019061021691906127c1565b610988565b005b61023760048036038101906102329190612955565b6109a8565b6040516102449190613042565b60405180910390f35b6102676004803603810190610262919061275c565b610a5a565b60405161027491906132c8565b60405180910390f35b61029760048036038101906102929190612955565b610b12565b6040516102a491906132a6565b60405180910390f35b6102c760048036038101906102c29190612955565b610e6e565b6040516102d491906132a6565b60405180910390f35b6102e56111ca565b6040516102f291906132c8565b60405180910390f35b6103036111db565b60405161031091906130c4565b60405180910390f35b610333600480360381019061032e919061288b565b61126d565b005b61034f600480360381019061034a9190612955565b611283565b005b61036b60048036038101906103669190612810565b611362565b005b61038760048036038101906103829190612955565b6113c4565b60405161039491906130c4565b60405180910390f35b6103b760048036038101906103b29190612785565b61146b565b6040516103c491906130a9565b60405180910390f35b60007f80ac58cd000000000000000000000000000000000000000000000000000000007bffffffffffffffffffffffffffffffffffffffffffffffffffffffff1916827bffffffffffffffffffffffffffffffffffffffffffffffffffffffff1916148061049857507f5b5e139f000000000000000000000000000000000000000000000000000000007bffffffffffffffffffffffffffffffffffffffffffffffffffffffff1916827bffffffffffffffffffffffffffffffffffffffffffffffffffffffff1916145b806104a857506104a7826114ff565b5b9050919050565b6060600080546104be9061366e565b80601f01602080910402602001604051908101604052809291908181526020018280546104ea9061366e565b80156105375780601f1061050c57610100808354040283529160200191610537565b820191906000526020600020905b81548152906001019060200180831161051a57829003601f168201915b5050505050905090565b600061054c82611569565b61058b576040517f08c379a000000000000000000000000000000000000000000000000000000000815260040161058290613226565b60405180910390fd5b6004600083815260200190815260200160002060009054906101000a900473ffffffffffffffffffffffffffffffffffffffff169050919050565b60006105d1826109a8565b90508073ffffffffffffffffffffffffffffffffffffffff168373ffffffffffffffffffffffffffffffffffffffff161415610642576040517f08c379a000000000000000000000000000000000000000000000000000000000815260040161063990613266565b60405180910390fd5b8073ffffffffffffffffffffffffffffffffffffffff166106616115d5565b73ffffffffffffffffffffffffffffffffffffffff161480610690575061068f8161068a6115d5565b61146b565b5b6106cf576040517f08c379a00000000000000000000000000000000000000000000000000000000081526004016106c6906131a6565b60405180910390fd5b6106d983836115dd565b505050565b6106f983838360405180602001604052806000815250611696565b505050565b600061070a60066116f2565b60006107166006611708565b905060006040518061012001604052808581526020018c81526020018a81526020018981526020018b63ffffffff16815260200188815260200186815260200183815260200160011515815250905080600760008d815260200190815260200160002060008201518160000190805190602001906107959291906121a3565b506020820151816001015560408201518160020190805190602001906107bc929190612229565b5060608201518160030190805190602001906107d9929190612289565b5060808201518160040160006101000a81548163ffffffff021916908363ffffffff16021790555060a082015181600501908051906020019061081d9291906121a3565b5060c082015181600601908051906020019061083a929190612339565b5060e082015181600701556101008201518160080160006101000a81548160ff021916908315150217905550905050806008600084815260200190815260200160002060008201518160000190805190602001906108999291906121a3565b506020820151816001015560408201518160020190805190602001906108c0929190612229565b5060608201518160030190805190602001906108dd929190612289565b5060808201518160040160006101000a81548163ffffffff021916908363ffffffff16021790555060a08201518160050190805190602001906109219291906121a3565b5060c082015181600601908051906020019061093e929190612339565b5060e082015181600701556101008201518160080160006101000a81548160ff0219169083151502179055509050506109778683611716565b819250505098975050505050505050565b6109a383838360405180602001604052806000815250611362565b505050565b6000806002600084815260200190815260200160002060009054906101000a900473ffffffffffffffffffffffffffffffffffffffff169050600073ffffffffffffffffffffffffffffffffffffffff168173ffffffffffffffffffffffffffffffffffffffff161415610a51576040517f08c379a0000000000000000000000000000000000000000000000000000000008152600401610a48906131e6565b60405180910390fd5b80915050919050565b60008073ffffffffffffffffffffffffffffffffffffffff168273ffffffffffffffffffffffffffffffffffffffff161415610acb576040517f08c379a0000000000000000000000000000000000000000000000000000000008152600401610ac2906131c6565b60405180910390fd5b600360008373ffffffffffffffffffffffffffffffffffffffff1673ffffffffffffffffffffffffffffffffffffffff168152602001908152602001600020549050919050565b610b1a612386565b6007600083815260200190815260200160002060405180610120016040529081600082018054610b499061366e565b80601f0160208091040260200160405190810160405280929190818152602001828054610b759061366e565b8015610bc25780601f10610b9757610100808354040283529160200191610bc2565b820191906000526020600020905b815481529060010190602001808311610ba557829003601f168201915b505050505081526020016001820154815260200160028201805480602002602001604051908101604052809291908181526020016000905b82821015610ca6578382906000526020600020018054610c199061366e565b80601f0160208091040260200160405190810160405280929190818152602001828054610c459061366e565b8015610c925780601f10610c6757610100808354040283529160200191610c92565b820191906000526020600020905b815481529060010190602001808311610c7557829003601f168201915b505050505081526020019060010190610bfa565b50505050815260200160038201805480602002602001604051908101604052809291908181526020018280548015610d2957602002820191906000526020600020906000905b82829054906101000a900463ffffffff1663ffffffff1681526020019060040190602082600301049283019260010382029150808411610cec5790505b505050505081526020016004820160009054906101000a900463ffffffff1663ffffffff1663ffffffff168152602001600582018054610d689061366e565b80601f0160208091040260200160405190810160405280929190818152602001828054610d949061366e565b8015610de15780601f10610db657610100808354040283529160200191610de1565b820191906000526020600020905b815481529060010190602001808311610dc457829003601f168201915b5050505050815260200160068201805480602002602001604051908101604052809291908181526020018280548015610e3957602002820191906000526020600020905b815481526020019060010190808311610e25575b50505050508152602001600782015481526020016008820160009054906101000a900460ff1615151515815250509050919050565b610e76612386565b6008600083815260200190815260200160002060405180610120016040529081600082018054610ea59061366e565b80601f0160208091040260200160405190810160405280929190818152602001828054610ed19061366e565b8015610f1e5780601f10610ef357610100808354040283529160200191610f1e565b820191906000526020600020905b815481529060010190602001808311610f0157829003601f168201915b505050505081526020016001820154815260200160028201805480602002602001604051908101604052809291908181526020016000905b82821015611002578382906000526020600020018054610f759061366e565b80601f0160208091040260200160405190810160405280929190818152602001828054610fa19061366e565b8015610fee5780601f10610fc357610100808354040283529160200191610fee565b820191906000526020600020905b815481529060010190602001808311610fd157829003601f168201915b505050505081526020019060010190610f56565b5050505081526020016003820180548060200260200160405190810160405280929190818152602001828054801561108557602002820191906000526020600020906000905b82829054906101000a900463ffffffff1663ffffffff16815260200190600401906020826003010492830192600103820291508084116110485790505b505050505081526020016004820160009054906101000a900463ffffffff1663ffffffff1663ffffffff1681526020016005820180546110c49061366e565b80601f01602080910402602001604051908101604052809291908181526020018280546110f09061366e565b801561113d5780601f106111125761010080835404028352916020019161113d565b820191906000526020600020905b81548152906001019060200180831161112057829003601f168201915b505050505081526020016006820180548060200260200160405190810160405280929190818152602001828054801561119557602002820191906000526020600020905b815481526020019060010190808311611181575b50505050508152602001600782015481526020016008820160009054906101000a900460ff1615151515815250509050919050565b60006111d66006611708565b905090565b6060600180546111ea9061366e565b80601f01602080910402602001604051908101604052809291908181526020018280546112169061366e565b80156112635780601f1061123857610100808354040283529160200191611263565b820191906000526020600020905b81548152906001019060200180831161124657829003601f168201915b5050505050905090565b61127f6112786115d5565b8383611734565b5050565b6040518060400160405280600a81526020017f7574696c697a7a617461000000000000000000000000000000000000000000008152506007600083815260200190815260200160002060050190805190602001906112e29291906121a3565b506000600760008381526020019081526020016000206007015490506040518060400160405280600a81526020017f7574696c697a7a6174610000000000000000000000000000000000000000000081525060086000838152602001908152602001600020600501908051906020019061135d9291906121a3565b505050565b61137361136d6115d5565b836118a1565b6113b2576040517f08c379a00000000000000000000000000000000000000000000000000000000081526004016113a990613286565b60405180910390fd5b6113be84848484611696565b50505050565b60606113cf82611569565b61140e576040517f08c379a000000000000000000000000000000000000000000000000000000000815260040161140590613246565b60405180910390fd5b600061141861197f565b905060008151116114385760405180602001604052806000815250611463565b8061144284611996565b60405160200161145392919061301e565b6040516020818303038152906040525b915050919050565b6000600560008473ffffffffffffffffffffffffffffffffffffffff1673ffffffffffffffffffffffffffffffffffffffff16815260200190815260200160002060008373ffffffffffffffffffffffffffffffffffffffff1673ffffffffffffffffffffffffffffffffffffffff16815260200190815260200160002060009054906101000a900460ff16905092915050565b60007f01ffc9a7000000000000000000000000000000000000000000000000000000007bffffffffffffffffffffffffffffffffffffffffffffffffffffffff1916827bffffffffffffffffffffffffffffffffffffffffffffffffffffffff1916149050919050565b60008073ffffffffffffffffffffffffffffffffffffffff166002600084815260200190815260200160002060009054906101000a900473ffffffffffffffffffffffffffffffffffffffff1673ffffffffffffffffffffffffffffffffffffffff1614159050919050565b600033905090565b816004600083815260200190815260200160002060006101000a81548173ffffffffffffffffffffffffffffffffffffffff021916908373ffffffffffffffffffffffffffffffffffffffff160217905550808273ffffffffffffffffffffffffffffffffffffffff16611650836109a8565b73ffffffffffffffffffffffffffffffffffffffff167f8c5be1e5ebec7d5bd14f71427d1e84f3dd0314c0f7b2291e5b200ac8c7c3b92560405160405180910390a45050565b6116a1848484611b43565b6116ad84848484611daa565b6116ec576040517f08c379a00000000000000000000000000000000000000000000000000000000081526004016116e3906130e6565b60405180910390fd5b50505050565b6001816000016000828254019250508190555050565b600081600001549050919050565b611730828260405180602001604052806000815250611f41565b5050565b8173ffffffffffffffffffffffffffffffffffffffff168373ffffffffffffffffffffffffffffffffffffffff1614156117a3576040517f08c379a000000000000000000000000000000000000000000000000000000000815260040161179a90613166565b60405180910390fd5b80600560008573ffffffffffffffffffffffffffffffffffffffff1673ffffffffffffffffffffffffffffffffffffffff16815260200190815260200160002060008473ffffffffffffffffffffffffffffffffffffffff1673ffffffffffffffffffffffffffffffffffffffff16815260200190815260200160002060006101000a81548160ff0219169083151502179055508173ffffffffffffffffffffffffffffffffffffffff168373ffffffffffffffffffffffffffffffffffffffff167f17307eab39ab6107e8899845ad3d59bd9653f200f220920489ca2b5937696c318360405161189491906130a9565b60405180910390a3505050565b60006118ac82611569565b6118eb576040517f08c379a00000000000000000000000000000000000000000000000000000000081526004016118e290613186565b60405180910390fd5b60006118f6836109a8565b90508073ffffffffffffffffffffffffffffffffffffffff168473ffffffffffffffffffffffffffffffffffffffff16148061196557508373ffffffffffffffffffffffffffffffffffffffff1661194d84610541565b73ffffffffffffffffffffffffffffffffffffffff16145b806119765750611975818561146b565b5b91505092915050565b606060405180602001604052806000815250905090565b606060008214156119de576040518060400160405280600181526020017f30000000000000000000000000000000000000000000000000000000000000008152509050611b3e565b600082905060005b60008214611a105780806119f9906136d1565b915050600a82611a099190613543565b91506119e6565b60008167ffffffffffffffff811115611a52577f4e487b7100000000000000000000000000000000000000000000000000000000600052604160045260246000fd5b6040519080825280601f01601f191660200182016040528015611a845781602001600182028036833780820191505090505b5090505b60008514611b3757600182611a9d9190613574565b9150600a85611aac919061371a565b6030611ab891906134ed565b60f81b818381518110611af4577f4e487b7100000000000000000000000000000000000000000000000000000000600052603260045260246000fd5b60200101907effffffffffffffffffffffffffffffffffffffffffffffffffffffffffffff1916908160001a905350600a85611b309190613543565b9450611a88565b8093505050505b919050565b8273ffffffffffffffffffffffffffffffffffffffff16611b63826109a8565b73ffffffffffffffffffffffffffffffffffffffff1614611bb9576040517f08c379a0000000000000000000000000000000000000000000000000000000008152600401611bb090613106565b60405180910390fd5b600073ffffffffffffffffffffffffffffffffffffffff168273ffffffffffffffffffffffffffffffffffffffff161415611c29576040517f08c379a0000000000000000000000000000000000000000000000000000000008152600401611c2090613146565b60405180910390fd5b611c34838383611f9c565b611c3f6000826115dd565b6001600360008573ffffffffffffffffffffffffffffffffffffffff1673ffffffffffffffffffffffffffffffffffffffff1681526020019081526020016000206000828254611c8f9190613574565b925050819055506001600360008473ffffffffffffffffffffffffffffffffffffffff1673ffffffffffffffffffffffffffffffffffffffff1681526020019081526020016000206000828254611ce691906134ed565b92505081905550816002600083815260200190815260200160002060006101000a81548173ffffffffffffffffffffffffffffffffffffffff021916908373ffffffffffffffffffffffffffffffffffffffff160217905550808273ffffffffffffffffffffffffffffffffffffffff168473ffffffffffffffffffffffffffffffffffffffff167fddf252ad1be2c89b69c2b068fc378daa952ba7f163c4a11628f55a4df523b3ef60405160405180910390a4611da5838383611fa1565b505050565b6000611dcb8473ffffffffffffffffffffffffffffffffffffffff16611fa6565b15611f34578373ffffffffffffffffffffffffffffffffffffffff1663150b7a02611df46115d5565b8786866040518563ffffffff1660e01b8152600401611e16949392919061305d565b602060405180830381600087803b158015611e3057600080fd5b505af1925050508015611e6157506040513d601f19601f82011682018060405250810190611e5e919061292c565b60015b611ee4573d8060008114611e91576040519150601f19603f3d011682016040523d82523d6000602084013e611e96565b606091505b50600081511415611edc576040517f08c379a0000000000000000000000000000000000000000000000000000000008152600401611ed3906130e6565b60405180910390fd5b805181602001fd5b63150b7a0260e01b7bffffffffffffffffffffffffffffffffffffffffffffffffffffffff1916817bffffffffffffffffffffffffffffffffffffffffffffffffffffffff191614915050611f39565b600190505b949350505050565b611f4b8383611fc9565b611f586000848484611daa565b611f97576040517f08c379a0000000000000000000000000000000000000000000000000000000008152600401611f8e906130e6565b60405180910390fd5b505050565b505050565b505050565b6000808273ffffffffffffffffffffffffffffffffffffffff163b119050919050565b600073ffffffffffffffffffffffffffffffffffffffff168273ffffffffffffffffffffffffffffffffffffffff161415612039576040517f08c379a000000000000000000000000000000000000000000000000000000000815260040161203090613206565b60405180910390fd5b61204281611569565b15612082576040517f08c379a000000000000000000000000000000000000000000000000000000000815260040161207990613126565b60405180910390fd5b61208e60008383611f9c565b6001600360008473ffffffffffffffffffffffffffffffffffffffff1673ffffffffffffffffffffffffffffffffffffffff16815260200190815260200160002060008282546120de91906134ed565b92505081905550816002600083815260200190815260200160002060006101000a81548173ffffffffffffffffffffffffffffffffffffffff021916908373ffffffffffffffffffffffffffffffffffffffff160217905550808273ffffffffffffffffffffffffffffffffffffffff16600073ffffffffffffffffffffffffffffffffffffffff167fddf252ad1be2c89b69c2b068fc378daa952ba7f163c4a11628f55a4df523b3ef60405160405180910390a461219f60008383611fa1565b5050565b8280546121af9061366e565b90600052602060002090601f0160209004810192826121d15760008555612218565b82601f106121ea57805160ff1916838001178555612218565b82800160010185558215612218579182015b828111156122175782518255916020019190600101906121fc565b5b50905061222591906123da565b5090565b828054828255906000526020600020908101928215612278579160200282015b828111156122775782518290805190602001906122679291906121a3565b5091602001919060010190612249565b5b50905061228591906123f7565b5090565b828054828255906000526020600020906007016008900481019282156123285791602002820160005b838211156122f657835183826101000a81548163ffffffff021916908363ffffffff16021790555092602001926004016020816003010492830192600103026122b2565b80156123265782816101000a81549063ffffffff02191690556004016020816003010492830192600103026122f6565b505b50905061233591906123da565b5090565b828054828255906000526020600020908101928215612375579160200282015b82811115612374578251825591602001919060010190612359565b5b50905061238291906123da565b5090565b60405180610120016040528060608152602001600081526020016060815260200160608152602001600063ffffffff1681526020016060815260200160608152602001600081526020016000151581525090565b5b808211156123f35760008160009055506001016123db565b5090565b5b80821115612417576000818161240e919061241b565b506001016123f8565b5090565b5080546124279061366e565b6000825580601f106124395750612458565b601f01602090049060005260206000209081019061245791906123da565b5b50565b600061246e61246984613308565b6132e3565b9050808382526020820190508260005b858110156124ae57813585016124948882612708565b84526020840193506020830192505060018101905061247e565b5050509392505050565b60006124cb6124c684613334565b6132e3565b905080838252602082019050828560208602820111156124ea57600080fd5b60005b8581101561251a57816125008882612732565b8452602084019350602083019250506001810190506124ed565b5050509392505050565b600061253761253284613360565b6132e3565b9050808382526020820190508285602086028201111561255657600080fd5b60005b85811015612586578161256c8882612747565b845260208401935060208301925050600181019050612559565b5050509392505050565b60006125a361259e8461338c565b6132e3565b9050828152602081018484840111156125bb57600080fd5b6125c684828561362c565b509392505050565b60006125e16125dc846133bd565b6132e3565b9050828152602081018484840111156125f957600080fd5b61260484828561362c565b509392505050565b60008135905061261b81613bf8565b92915050565b600082601f83011261263257600080fd5b813561264284826020860161245b565b91505092915050565b600082601f83011261265c57600080fd5b813561266c8482602086016124b8565b91505092915050565b600082601f83011261268657600080fd5b8135612696848260208601612524565b91505092915050565b6000813590506126ae81613c0f565b92915050565b6000813590506126c381613c26565b92915050565b6000815190506126d881613c26565b92915050565b600082601f8301126126ef57600080fd5b81356126ff848260208601612590565b91505092915050565b600082601f83011261271957600080fd5b81356127298482602086016125ce565b91505092915050565b60008135905061274181613c3d565b92915050565b60008135905061275681613c54565b92915050565b60006020828403121561276e57600080fd5b600061277c8482850161260c565b91505092915050565b6000806040838503121561279857600080fd5b60006127a68582860161260c565b92505060206127b78582860161260c565b9150509250929050565b6000806000606084860312156127d657600080fd5b60006127e48682870161260c565b93505060206127f58682870161260c565b925050604061280686828701612732565b9150509250925092565b6000806000806080858703121561282657600080fd5b60006128348782880161260c565b94505060206128458782880161260c565b935050604061285687828801612732565b925050606085013567ffffffffffffffff81111561287357600080fd5b61287f878288016126de565b91505092959194509250565b6000806040838503121561289e57600080fd5b60006128ac8582860161260c565b92505060206128bd8582860161269f565b9150509250929050565b600080604083850312156128da57600080fd5b60006128e88582860161260c565b92505060206128f985828601612732565b9150509250929050565b60006020828403121561291557600080fd5b6000612923848285016126b4565b91505092915050565b60006020828403121561293e57600080fd5b600061294c848285016126c9565b91505092915050565b60006020828403121561296757600080fd5b600061297584828501612732565b91505092915050565b600080600080600080600080610100898b03121561299b57600080fd5b60006129a98b828c01612732565b98505060206129ba8b828c01612747565b975050604089013567ffffffffffffffff8111156129d757600080fd5b6129e38b828c01612621565b965050606089013567ffffffffffffffff811115612a0057600080fd5b612a0c8b828c01612675565b955050608089013567ffffffffffffffff811115612a2957600080fd5b612a358b828c01612708565b94505060a0612a468b828c0161260c565b93505060c089013567ffffffffffffffff811115612a6357600080fd5b612a6f8b828c0161264b565b92505060e089013567ffffffffffffffff811115612a8c57600080fd5b612a988b828c01612708565b9150509295985092959890939650565b6000612ab48383612c83565b905092915050565b6000612ac88383612ff1565b60208301905092915050565b6000612ae0838361300f565b60208301905092915050565b612af5816135a8565b82525050565b6000612b068261341e565b612b10818561347c565b935083602082028501612b22856133ee565b8060005b85811015612b5e5784840389528151612b3f8582612aa8565b9450612b4a83613455565b925060208a01995050600181019050612b26565b50829750879550505050505092915050565b6000612b7b82613429565b612b85818561348d565b9350612b90836133fe565b8060005b83811015612bc1578151612ba88882612abc565b9750612bb383613462565b925050600181019050612b94565b5085935050505092915050565b6000612bd982613434565b612be3818561349e565b9350612bee8361340e565b8060005b83811015612c1f578151612c068882612ad4565b9750612c118361346f565b925050600181019050612bf2565b5085935050505092915050565b612c35816135ba565b82525050565b612c44816135ba565b82525050565b6000612c558261343f565b612c5f81856134af565b9350612c6f81856020860161363b565b612c7881613807565b840191505092915050565b6000612c8e8261344a565b612c9881856134c0565b9350612ca881856020860161363b565b612cb181613807565b840191505092915050565b6000612cc78261344a565b612cd181856134d1565b9350612ce181856020860161363b565b612cea81613807565b840191505092915050565b6000612d008261344a565b612d0a81856134e2565b9350612d1a81856020860161363b565b80840191505092915050565b6000612d336032836134d1565b9150612d3e82613818565b604082019050919050565b6000612d566025836134d1565b9150612d6182613867565b604082019050919050565b6000612d79601c836134d1565b9150612d84826138b6565b602082019050919050565b6000612d9c6024836134d1565b9150612da7826138df565b604082019050919050565b6000612dbf6019836134d1565b9150612dca8261392e565b602082019050919050565b6000612de2602c836134d1565b9150612ded82613957565b604082019050919050565b6000612e056038836134d1565b9150612e10826139a6565b604082019050919050565b6000612e28602a836134d1565b9150612e33826139f5565b604082019050919050565b6000612e4b6029836134d1565b9150612e5682613a44565b604082019050919050565b6000612e6e6020836134d1565b9150612e7982613a93565b602082019050919050565b6000612e91602c836134d1565b9150612e9c82613abc565b604082019050919050565b6000612eb4602f836134d1565b9150612ebf82613b0b565b604082019050919050565b6000612ed76021836134d1565b9150612ee282613b5a565b604082019050919050565b6000612efa6031836134d1565b9150612f0582613ba9565b604082019050919050565b6000610120830160008301518482036000860152612f2e8282612c83565b9150506020830151612f436020860182612ff1565b5060408301518482036040860152612f5b8282612afb565b91505060608301518482036060860152612f758282612bce565b9150506080830151612f8a608086018261300f565b5060a083015184820360a0860152612fa28282612c83565b91505060c083015184820360c0860152612fbc8282612b70565b91505060e0830151612fd160e0860182612ff1565b50610100830151612fe6610100860182612c2c565b508091505092915050565b612ffa81613612565b82525050565b61300981613612565b82525050565b6130188161361c565b82525050565b600061302a8285612cf5565b91506130368284612cf5565b91508190509392505050565b60006020820190506130576000830184612aec565b92915050565b60006080820190506130726000830187612aec565b61307f6020830186612aec565b61308c6040830185613000565b818103606083015261309e8184612c4a565b905095945050505050565b60006020820190506130be6000830184612c3b565b92915050565b600060208201905081810360008301526130de8184612cbc565b905092915050565b600060208201905081810360008301526130ff81612d26565b9050919050565b6000602082019050818103600083015261311f81612d49565b9050919050565b6000602082019050818103600083015261313f81612d6c565b9050919050565b6000602082019050818103600083015261315f81612d8f565b9050919050565b6000602082019050818103600083015261317f81612db2565b9050919050565b6000602082019050818103600083015261319f81612dd5565b9050919050565b600060208201905081810360008301526131bf81612df8565b9050919050565b600060208201905081810360008301526131df81612e1b565b9050919050565b600060208201905081810360008301526131ff81612e3e565b9050919050565b6000602082019050818103600083015261321f81612e61565b9050919050565b6000602082019050818103600083015261323f81612e84565b9050919050565b6000602082019050818103600083015261325f81612ea7565b9050919050565b6000602082019050818103600083015261327f81612eca565b9050919050565b6000602082019050818103600083015261329f81612eed565b9050919050565b600060208201905081810360008301526132c08184612f10565b905092915050565b60006020820190506132dd6000830184613000565b92915050565b60006132ed6132fe565b90506132f982826136a0565b919050565b6000604051905090565b600067ffffffffffffffff821115613323576133226137d8565b5b602082029050602081019050919050565b600067ffffffffffffffff82111561334f5761334e6137d8565b5b602082029050602081019050919050565b600067ffffffffffffffff82111561337b5761337a6137d8565b5b602082029050602081019050919050565b600067ffffffffffffffff8211156133a7576133a66137d8565b5b6133b082613807565b9050602081019050919050565b600067ffffffffffffffff8211156133d8576133d76137d8565b5b6133e182613807565b9050602081019050919050565b6000819050602082019050919050565b6000819050602082019050919050565b6000819050602082019050919050565b600081519050919050565b600081519050919050565b600081519050919050565b600081519050919050565b600081519050919050565b6000602082019050919050565b6000602082019050919050565b6000602082019050919050565b600082825260208201905092915050565b600082825260208201905092915050565b600082825260208201905092915050565b600082825260208201905092915050565b600082825260208201905092915050565b600082825260208201905092915050565b600081905092915050565b60006134f882613612565b915061350383613612565b9250827fffffffffffffffffffffffffffffffffffffffffffffffffffffffffffffffff038211156135385761353761374b565b5b828201905092915050565b600061354e82613612565b915061355983613612565b9250826135695761356861377a565b5b828204905092915050565b600061357f82613612565b915061358a83613612565b92508282101561359d5761359c61374b565b5b828203905092915050565b60006135b3826135f2565b9050919050565b60008115159050919050565b60007fffffffff0000000000000000000000000000000000000000000000000000000082169050919050565b600073ffffffffffffffffffffffffffffffffffffffff82169050919050565b6000819050919050565b600063ffffffff82169050919050565b82818337600083830152505050565b60005b8381101561365957808201518184015260208101905061363e565b83811115613668576000848401525b50505050565b6000600282049050600182168061368657607f821691505b6020821081141561369a576136996137a9565b5b50919050565b6136a982613807565b810181811067ffffffffffffffff821117156136c8576136c76137d8565b5b80604052505050565b60006136dc82613612565b91507fffffffffffffffffffffffffffffffffffffffffffffffffffffffffffffffff82141561370f5761370e61374b565b5b600182019050919050565b600061372582613612565b915061373083613612565b9250826137405761373f61377a565b5b828206905092915050565b7f4e487b7100000000000000000000000000000000000000000000000000000000600052601160045260246000fd5b7f4e487b7100000000000000000000000000000000000000000000000000000000600052601260045260246000fd5b7f4e487b7100000000000000000000000000000000000000000000000000000000600052602260045260246000fd5b7f4e487b7100000000000000000000000000000000000000000000000000000000600052604160045260246000fd5b6000601f19601f8301169050919050565b7f4552433732313a207472616e7366657220746f206e6f6e20455243373231526560008201527f63656976657220696d706c656d656e7465720000000000000000000000000000602082015250565b7f4552433732313a207472616e736665722066726f6d20696e636f72726563742060008201527f6f776e6572000000000000000000000000000000000000000000000000000000602082015250565b7f4552433732313a20746f6b656e20616c7265616479206d696e74656400000000600082015250565b7f4552433732313a207472616e7366657220746f20746865207a65726f2061646460008201527f7265737300000000000000000000000000000000000000000000000000000000602082015250565b7f4552433732313a20617070726f766520746f2063616c6c657200000000000000600082015250565b7f4552433732313a206f70657261746f7220717565727920666f72206e6f6e657860008201527f697374656e7420746f6b656e0000000000000000000000000000000000000000602082015250565b7f4552433732313a20617070726f76652063616c6c6572206973206e6f74206f7760008201527f6e6572206e6f7220617070726f76656420666f7220616c6c0000000000000000602082015250565b7f4552433732313a2062616c616e636520717565727920666f7220746865207a6560008201527f726f206164647265737300000000000000000000000000000000000000000000602082015250565b7f4552433732313a206f776e657220717565727920666f72206e6f6e657869737460008201527f656e7420746f6b656e0000000000000000000000000000000000000000000000602082015250565b7f4552433732313a206d696e7420746f20746865207a65726f2061646472657373600082015250565b7f4552433732313a20617070726f76656420717565727920666f72206e6f6e657860008201527f697374656e7420746f6b656e0000000000000000000000000000000000000000602082015250565b7f4552433732314d657461646174613a2055524920717565727920666f72206e6f60008201527f6e6578697374656e7420746f6b656e0000000000000000000000000000000000602082015250565b7f4552433732313a20617070726f76616c20746f2063757272656e74206f776e6560008201527f7200000000000000000000000000000000000000000000000000000000000000602082015250565b7f4552433732313a207472616e736665722063616c6c6572206973206e6f74206f60008201527f776e6572206e6f7220617070726f766564000000000000000000000000000000602082015250565b613c01816135a8565b8114613c0c57600080fd5b50565b613c18816135ba565b8114613c2357600080fd5b50565b613c2f816135c6565b8114613c3a57600080fd5b50565b613c4681613612565b8114613c5157600080fd5b50565b613c5d8161361c565b8114613c6857600080fd5b5056fea2646970667358221220b7eb934a8883d83fce5ef7265c16cccf0d17b5090d063dbbd9005c45769bb66364736f6c63430008030033",
  "immutableReferences": {},
  "source": "// SPDX-License-Identifier: MIT\r\n\r\npragma solidity 0.8.3;\r\n//pragma experimental SMTChecker;\r\n\r\nimport \"./CarbonFootprint.sol\";\r\nimport \"./Generica.sol\";\r\nimport \"../node_modules/@openzeppelin/contracts/access/Ownable.sol\";\r\n\r\n\r\ncontract Gestore_nft is Ownable {\r\n\r\n\r\n\r\n\r\n\r\n\r\n    // mapping attraverso i quali posso ricavare i produttori, trasformatori e clienti\r\n    mapping(uint256=>address) private produttori;\r\n    mapping(uint256=>address) private trasformatori;\r\n    mapping(uint256=>address) private clienti;\r\n    uint256 private numero_produttori = 0;\r\n    uint256 private numero_trasformatori = 0;\r\n    uint256 private numero_clienti = 0;\r\n\r\n\r\n    // creo l'oggetto che rappresenta il token non fungibile\r\n    CarbonFootprint private carbonFootprint = new CarbonFootprint();\r\n\r\n    //funzione con cui il creatore dello smartContract pu aggiungere un nuovo produttore, trasformatore o cliente\r\n    function aggiungiAttore(\r\n        string memory _tipo, address _indirizzo_account\r\n    ) external onlyOwner {\r\n\r\n        // errore se il ruolo inserito  diverso dai 3 disponibili\r\n        require(\r\n            (Generica.stringCompare(_tipo, \"produttore\")) || \r\n            (Generica.stringCompare(_tipo, \"trasformatore\")) || \r\n            (Generica.stringCompare(_tipo, \"cliente\")),\r\n            \"I ruoli disponibili sono: _produttore_ _trasformatore_ e _cliente_\"\r\n            );\r\n\r\n\r\n        // errore se l'account inserito compare gi nel mapping relativo al ruolo richiesto\r\n        require(\r\n            !esistente(_tipo, _indirizzo_account),\r\n            \"Account gia' presente con questo ruolo\"\r\n            );\r\n\r\n        // in base al ruolo passato, l'account viene inserito nel corrispondente mapping\r\n        if (Generica.stringCompare(_tipo, \"produttore\")) {\r\n            produttori[numero_produttori] = _indirizzo_account;\r\n            unchecked \r\n            {\r\n                numero_produttori++;\r\n                require(numero_produttori>0,\"Raggiunto il numero massimo di produttori\");\r\n            }\r\n        } else if (Generica.stringCompare(_tipo, \"trasformatore\")) {\r\n            trasformatori[numero_trasformatori] = _indirizzo_account;\r\n            unchecked\r\n            {\r\n                numero_trasformatori++;\r\n                require(numero_trasformatori>0,\"Raggiunto il numero massimo di trasformatori\");\r\n            }\r\n            numero_trasformatori++;\r\n        } else if (Generica.stringCompare(_tipo, \"cliente\")) {\r\n            clienti[numero_clienti] = _indirizzo_account;\r\n            unchecked\r\n            {\r\n                numero_clienti++;\r\n                require(numero_clienti>0,\"Raggiunto il numero massimo di clienti\");\r\n            }\r\n        }\r\n    }\r\n\r\n    //crea una materia prima a partire da noe, valore di CO2 e lotto\r\n    function creaMateriaPrima(\r\n        uint256 _lotto, uint32 _valore_CO2, string memory _nome\r\n    ) external {\r\n\r\n        // errore se il richiedente non  un produttore\r\n        require(esistente(\"produttore\", msg.sender), \"Solo i produttori possono aggiungere materie prime\");\r\n        // errore se il lotto inserito  0\r\n        require(_lotto != 0, \"Id lotto non valido\");\r\n        // errore se il lotto inserito  gi presente nel catalogo\r\n        require(carbonFootprint.getRisorsaByLotto(_lotto).exists==false, \"Id lotto gia' presente\");\r\n        // creo 3 array vuoti, perch al \"crea prodotto\" devono essere passati anche le riorse usate per produrre la risorsa\r\n        // le attivit svolte ed il loro consumo, ma poich stiamo inserendo una materia prima, tali valori sono nulli\r\n        uint256[] memory vettore_risorse;\r\n        string[] memory nomi_attivita;\r\n        uint32[] memory consumi_attivita;\r\n\r\n        // creo effettivamente la materia prima\r\n        carbonFootprint.creaProdotto(_lotto, _valore_CO2, nomi_attivita, consumi_attivita, \"materia prima\", msg.sender, vettore_risorse, _nome);\r\n\r\n    }\r\n\r\n    // consente di trasferire una materia prima ad un altro attore\r\n    function trasferimentoRisorsa(\r\n        address _destinatario, uint256 _lotto\r\n        ) external {\r\n        \r\n        // errore se il destinatario  colui che richiede la transazione\r\n        require(_destinatario != msg.sender, \"Il destinatario ed il richiedente non possono coincidere\");\r\n\r\n        CarbonFootprint.Risorsa memory risorsa = carbonFootprint.getRisorsaByLotto(_lotto);\r\n\r\n        // errore se la risorsa non esiste nel catalogo o se  stata utilizzata \r\n        require(risorsa.exists == true && !Generica.stringCompare(string(risorsa.tipologia), \"utilizzata\"), \"Il lotto inserito non corrisponde ad una risorsa del catalogo\");\r\n        // errore se il richiedente non possiede la risorsa\r\n        require(getOwnerByToken(risorsa.token) == msg.sender, \"Non sei in possesso della risorsa\");  \r\n        // errore se il destinatario non  un cliente, trasformatore o produttore\r\n        require(esistente(_destinatario), \"Il destinatario deve essere un produttore, trasformatore o cliente\");\r\n        carbonFootprint.transferFrom(msg.sender, _destinatario, risorsa.token);\r\n    }\r\n\r\n    // crea un nuovo prodotto a partire da un vettore di lotti di materie prime, un vettore di nomi di attivit svolte\r\n    // un vettore di consumi delle attivit svolte, un nome ed un lotto\r\n    function creaProdotto(\r\n        string[] memory _nomi_attivita, uint32[] memory _valori_CO2_attivita, string memory _nome, uint256[] memory _lotti_materie_prime, uint256 _lotto_nuovo_prodotto\r\n    ) external {\r\n\r\n        // errore se i vettori non rispettano le dimensioni richieste\r\n        require(_nomi_attivita.length < 5 && _valori_CO2_attivita.length < 5 && _lotti_materie_prime.length < 5 && _nomi_attivita.length == _valori_CO2_attivita.length, \"Errore nell'inserimento del numero di materie prime o di attivita'\");\r\n        // errore se il lotto del prodotto da creare esiste gi \r\n        require(carbonFootprint.getRisorsaByLotto(_lotto_nuovo_prodotto).exists == false, \"Il lotto inserito e' gia' presente\");\r\n        // errore se il richiedente non  un trasformatore\r\n        require(esistente(\"trasformatore\", msg.sender), \"Solo i trasformatori possono aggiungere un prodotto trasformato\");\r\n        // inizializzo la CO2 totale a 0, poi ci sommer quella delle attivit svolte e quella delle materie prime utilizzate\r\n        uint32 CO2_totale = 0; \r\n\r\n        // per ogni materia prima controllo se  valida ed utilizzabile, poi sommo i corrispondenti contributi in CO2\r\n        for (uint i=0; i < _lotti_materie_prime.length; i++) {\r\n\r\n            // estraggo la risorsa dal catalogo conoscendone il lotto\r\n            CarbonFootprint.Risorsa memory risorsa = carbonFootprint.getRisorsaByLotto(_lotti_materie_prime[i]);\r\n       \r\n       \r\n            // trasformo l'uint256 in una stringa in modo da concatenarla nell'errore\r\n            string memory stringa_lotto = Generica.toString(_lotti_materie_prime[i]);\r\n            // errore se la materia prima non esiste\r\n            require(risorsa.exists == true, Generica.concatenate(\"Nel catalogo non e' presente alcuna materia prima con lotto pari a \", stringa_lotto));\r\n\r\n            // errore se il lotto  0 \r\n            require(_lotti_materie_prime[i] != 0, \"Il lotto 0 non e' valido\");\r\n            // errore se il richiedente non possiede la risorsa\r\n            require(getOwnerByToken(risorsa.token) == msg.sender, Generica.concatenate(\"Non sei in possesso della materia prima con lotto\", stringa_lotto));\r\n            // errore se la risorsa non  una materia prima\r\n            require(Generica.stringCompare(string(risorsa.tipologia), \"materia prima\"), Generica.concatenate(Generica.concatenate(\"L'elemento con lotto pari a \", stringa_lotto), \" non e' una materia prima\"));\r\n\r\n            // settiamo il valore \"tipologia\" della risorsa a \"utilizzata\" in modo che non possa essere usata per \r\n            // produrre nuovi prodotti\r\n            carbonFootprint.setTipologiaUtilizzato(_lotti_materie_prime[i]);\r\n\r\n            // sommo alla CO2 totale quella della materia prima corrente\r\n            unchecked \r\n            {\r\n                CO2_totale += risorsa.valore_CO2;\r\n                require(CO2_totale >= risorsa.valore_CO2, \"Si e' verificato un errore di overflow\");\r\n            }\r\n            \r\n        }\r\n        \r\n\r\n        // per ogni attivit sommo i consumi di CO2 al valore di CO2 totale\r\n        for (uint i=0; i < _valori_CO2_attivita.length; i++) {  \r\n\r\n            // sommo i contributi delle singole attivita\r\n            unchecked \r\n            {\r\n                CO2_totale += _valori_CO2_attivita[i];\r\n                require(CO2_totale >= _valori_CO2_attivita[i], \"Si e' verificato un errore di overflow\");\r\n            }\r\n        }\r\n            \r\n        // creo il prodotto passando id del lotto, CO2 totale, vettore con i nomi delle attivit svolte, vettore con i \r\n        // consumi delle attivit svolte, tipologia (prodotto trasformato), possessore (chi ha mandato il messaggio),\r\n        // lotti di materie prime utilizzate e nome\r\n        carbonFootprint.creaProdotto(_lotto_nuovo_prodotto, CO2_totale, _nomi_attivita, _valori_CO2_attivita, \"prodotto trasformato\", msg.sender, _lotti_materie_prime, _nome);\r\n\r\n    }\r\n    \r\n    // funzione che riceve un token e restituisce l'indirizzo del possessore\r\n    function getOwnerByToken(uint256 _token) public view returns(address) {\r\n\r\n    // errore se il token  0\r\n    require(_token != 0, \"Il token inserito non e' valido\"); \r\n    \r\n    // errore se il token inserito  maggiore di quello corrente\r\n    require(_token <= carbonFootprint.currentToken(), \"Prodotto/materia prima non esistente\"); \r\n    \r\n    return carbonFootprint.ownerOf(_token);\r\n    }\r\n\r\n\r\n\r\n\r\n\r\n    // funzione che riceve un token e restituisce le informazioni relative alla risorsa con quel token\r\n    function getInfoByToken(uint256 _token)\r\n        public view returns(string memory, uint256, string[] memory, uint32[] memory, uint32, string memory, uint256[] memory, uint256) {\r\n\r\n        // errore se il token passato  0 o  maggiore del token corrente \r\n        require(_token != 0 && _token <= carbonFootprint.currentToken(), \"Il token inserito non e' valido\");\r\n        \r\n        // estraggo dal catalogo la risorsa con token pari a quello passato\r\n        CarbonFootprint.Risorsa memory risorsa = carbonFootprint.getRisorsaByIdProdotto(_token);\r\n        \r\n        return(risorsa.nome, risorsa.lotto, risorsa.nomi_attivita, risorsa.valori_CO2_attivita, risorsa.valore_CO2, risorsa.tipologia, risorsa.lotti_materie_prime, risorsa.token);\r\n    }\r\n\r\n    // funzione che riceve un lotto e restituisce le informazioni relative alla risorsa con quel lotto\r\n    function getInfoByLotto(uint256 _lotto)\r\n        public view returns(string memory, uint256, string[] memory, uint32[] memory, uint32, string memory, uint256[] memory, uint256) {\r\n\r\n        CarbonFootprint.Risorsa memory risorsa = carbonFootprint.getRisorsaByLotto(_lotto);\r\n        \r\n        // errore se il lotto appartiene ad una risorsa che non esiste\r\n        require(_lotto !=0 && risorsa.exists != false, \"Il lotto inserito non e' valido\");\r\n        \r\n        return(risorsa.nome, risorsa.lotto, risorsa.nomi_attivita, risorsa.valori_CO2_attivita, risorsa.valore_CO2, risorsa.tipologia, risorsa.lotti_materie_prime, risorsa.token);\r\n    }\r\n\r\n\r\n\r\n    // funzione che riceve un nome e restituisce una lista di informazioni relative alle risorse con quel nome\r\n    function getInfoByNome(string memory _nome)\r\n        public view returns(string memory) {\r\n        \r\n        uint256 trovati=0;\r\n        string memory results;\r\n        // scorro tutto il catalogo alla ricerca di risorse con il nome passato\r\n        for (uint256 i=1; i <= carbonFootprint.currentToken(); i++) {\r\n            CarbonFootprint.Risorsa memory risorsa_i = carbonFootprint.getRisorsaByIdProdotto(i);\r\n            if(Generica.stringCompare(risorsa_i.nome, _nome)) {\r\n                results = Generica.concatenate(results, risorsa_i.nome);\r\n                results = Generica.concatenate(results, \",\");\r\n                results = Generica.concatenate(results, Generica.toString(risorsa_i.lotto));\r\n                results = Generica.concatenate(results, \",\");\r\n                results = Generica.concatenate(results, Generica.toString(risorsa_i.valore_CO2));\r\n                results = Generica.concatenate(results, \",\");\r\n                results = Generica.concatenate(results, Generica.toString(risorsa_i.token));\r\n                results = Generica.concatenate(results, \",\");\r\n                results = Generica.concatenate(results, risorsa_i.tipologia);\r\n                results = Generica.concatenate(results, \",\");\r\n                for(uint j; j < risorsa_i.nomi_attivita.length;j++) {\r\n                    results = Generica.concatenate(results, risorsa_i.nomi_attivita[j]);\r\n                    results = Generica.concatenate(results, \" | \");\r\n                }\r\n                results = Generica.concatenate(results, \",\");\r\n                for(uint j; j < risorsa_i.valori_CO2_attivita.length;j++) {\r\n                    results = Generica.concatenate(results, Generica.toString(risorsa_i.valori_CO2_attivita[j]));\r\n                    results = Generica.concatenate(results, \" | \");\r\n                }\r\n                results = Generica.concatenate(results, \",\");\r\n                for(uint j; j < risorsa_i.lotti_materie_prime.length;j++) {\r\n                    results = Generica.concatenate(results, Generica.toString(risorsa_i.lotti_materie_prime[j]));\r\n                    results = Generica.concatenate(results, \" | \");\r\n                }\r\n                results = Generica.concatenate(results, \";\");\r\n                trovati++;\r\n            }\r\n        }\r\n\r\n        // errore se nessun prodotto ha il nome passato\r\n        require(trovati != 0, \"Non e' stato trovato alcun prodotto/materia prima con il nome inserito\");\r\n\r\n        return results;\r\n    }  \r\n\r\n\r\n    //funzione che restituisce vero se l'account ricopre gi il ruolo passato in input\r\n    function esistente(string memory _ruolo, address _indirizzo_account)\r\n        public view returns(bool) {\r\n\r\n        if(Generica.stringCompare(_ruolo, \"produttore\")) { // se il tipo passato  produttore allora cerco sul mapping dei produttori\r\n            for (uint i; i < numero_produttori; i++) {\r\n                if(_indirizzo_account == produttori[i]) return true;\r\n            }\r\n        } else if(Generica.stringCompare(_ruolo, \"trasformatore\")) { // se il tipo passato  trasformatore allora cerco sul mapping dei trasformatore\r\n            for (uint i; i < numero_trasformatori; i++) {\r\n                if(_indirizzo_account == trasformatori[i]) return true;\r\n            }\r\n        } else if (Generica.stringCompare(_ruolo, \"cliente\")) { // se il tipo passato  cliente allora cerco sul mapping dei clienti\r\n            for (uint i; i < numero_clienti; i++) {\r\n                if(_indirizzo_account == clienti[i]) return true;\r\n            }\r\n        }\r\n        return false;\r\n    }\r\n\r\n\r\n\r\n\r\n    // funzione che scorre tutti e tre i mapping degli attori per controllare se l'account appartiene ad un \r\n    // produttore, trasformatore o destinatario\r\n    function esistente(address _indirizzo_account)\r\n        private view returns(bool) {\r\n\r\n        for (uint i; i < numero_produttori; i++) {\r\n            if(_indirizzo_account == produttori[i]) return true;\r\n        }\r\n\r\n        for (uint i; i < numero_trasformatori; i++) {\r\n            if(_indirizzo_account == trasformatori[i]) return true;\r\n        }\r\n        \r\n\r\n        for (uint i; i < numero_clienti; i++) {\r\n            if(_indirizzo_account == clienti[i]) return true;\r\n        }\r\n\r\n        return false;\r\n    }\r\n\r\n}",
  "sourcePath": "/Users/alessandro/vscode/CarbonFootprint_Project/network/prova/contracts/Gestore_nft.sol",
  "compiler": {
    "name": "solc",
    "version": "0.8.3+commit.8d00100c.Emscripten.clang"
  },
  "schemaVersion": "3.4.4",
  "updatedAt": "2022-03-11T13:31:05.532Z",
  "networkType": "quorum",
  "devdoc": {
    "kind": "dev",
    "methods": {
      "owner()": {
        "details": "Returns the address of the current owner."
      },
      "renounceOwnership()": {
        "details": "Leaves the contract without owner. It will not be possible to call `onlyOwner` functions anymore. Can only be called by the current owner. NOTE: Renouncing ownership will leave the contract without an owner, thereby removing any functionality that is only available to the owner."
      },
      "transferOwnership(address)": {
        "details": "Transfers ownership of the contract to a new account (`newOwner`). Can only be called by the current owner."
      }
    },
    "version": 1
  },
  "userdoc": {
    "kind": "user",
    "methods": {},
    "version": 1
  }
}